{
	"contracts/caldata.sol": {
		"call": {
			"abi": [
				{
					"inputs": [
						{
							"internalType": "int256[6]",
							"name": "a",
							"type": "int256[6]"
						}
					],
					"name": "add",
					"outputs": [],
					"stateMutability": "nonpayable",
					"type": "function"
				},
				{
					"inputs": [
						{
							"internalType": "int256[6]",
							"name": "a",
							"type": "int256[6]"
						}
					],
					"name": "add1",
					"outputs": [],
					"stateMutability": "nonpayable",
					"type": "function"
				},
				{
					"inputs": [],
					"name": "add2",
					"outputs": [],
					"stateMutability": "nonpayable",
					"type": "function"
				},
				{
					"inputs": [
						{
							"internalType": "uint256",
							"name": "",
							"type": "uint256"
						}
					],
					"name": "arr",
					"outputs": [
						{
							"internalType": "int256",
							"name": "",
							"type": "int256"
						}
					],
					"stateMutability": "view",
					"type": "function"
				},
				{
					"inputs": [
						{
							"internalType": "uint256",
							"name": "index",
							"type": "uint256"
						},
						{
							"internalType": "int256",
							"name": "newvalue",
							"type": "int256"
						}
					],
					"name": "changet",
					"outputs": [],
					"stateMutability": "nonpayable",
					"type": "function"
				}
			],
			"devdoc": {
				"kind": "dev",
				"methods": {},
				"version": 1
			},
			"evm": {
				"assembly": "    /* \"contracts/caldata.sol\":72:564  contract call{... */\n  mstore(0x40, 0x80)\n  callvalue\n  dup1\n  iszero\n  tag_1\n  jumpi\n  0x00\n  dup1\n  revert\ntag_1:\n  pop\n  dataSize(sub_0)\n  dup1\n  dataOffset(sub_0)\n  0x00\n  codecopy\n  0x00\n  return\nstop\n\nsub_0: assembly {\n        /* \"contracts/caldata.sol\":72:564  contract call{... */\n      mstore(0x40, 0x80)\n      callvalue\n      dup1\n      iszero\n      tag_1\n      jumpi\n      0x00\n      dup1\n      revert\n    tag_1:\n      pop\n      jumpi(tag_2, lt(calldatasize, 0x04))\n      shr(0xe0, calldataload(0x00))\n      dup1\n      0x50304426\n      eq\n      tag_3\n      jumpi\n      dup1\n      0x6c1f222f\n      eq\n      tag_4\n      jumpi\n      dup1\n      0x71e5ee5f\n      eq\n      tag_5\n      jumpi\n      dup1\n      0xdc36bf18\n      eq\n      tag_6\n      jumpi\n      dup1\n      0xdf9c9062\n      eq\n      tag_7\n      jumpi\n    tag_2:\n      0x00\n      dup1\n      revert\n        /* \"contracts/caldata.sol\":167:333  function add1(int [6]calldata a)external... */\n    tag_3:\n      tag_8\n      0x04\n      dup1\n      calldatasize\n      sub\n      dup2\n      add\n      swap1\n      tag_9\n      swap2\n      swap1\n      tag_10\n      jump\t// in\n    tag_9:\n      tag_11\n      jump\t// in\n    tag_8:\n      stop\n        /* \"contracts/caldata.sol\":335:473  function add2()external ... */\n    tag_4:\n      tag_12\n      tag_13\n      jump\t// in\n    tag_12:\n      stop\n        /* \"contracts/caldata.sol\":88:105  int [6]public arr */\n    tag_5:\n      tag_14\n      0x04\n      dup1\n      calldatasize\n      sub\n      dup2\n      add\n      swap1\n      tag_15\n      swap2\n      swap1\n      tag_16\n      jump\t// in\n    tag_15:\n      tag_17\n      jump\t// in\n    tag_14:\n      mload(0x40)\n      tag_18\n      swap2\n      swap1\n      tag_19\n      jump\t// in\n    tag_18:\n      mload(0x40)\n      dup1\n      swap2\n      sub\n      swap1\n      return\n        /* \"contracts/caldata.sol\":108:165  function add( int[6] memory a)external ... */\n    tag_6:\n      tag_20\n      0x04\n      dup1\n      calldatasize\n      sub\n      dup2\n      add\n      swap1\n      tag_21\n      swap2\n      swap1\n      tag_22\n      jump\t// in\n    tag_21:\n      tag_23\n      jump\t// in\n    tag_20:\n      stop\n        /* \"contracts/caldata.sol\":475:559  function changet(uint index ,int newvalue)external... */\n    tag_7:\n      tag_24\n      0x04\n      dup1\n      calldatasize\n      sub\n      dup2\n      add\n      swap1\n      tag_25\n      swap2\n      swap1\n      tag_26\n      jump\t// in\n    tag_25:\n      tag_27\n      jump\t// in\n    tag_24:\n      stop\n        /* \"contracts/caldata.sol\":167:333  function add1(int [6]calldata a)external... */\n    tag_11:\n      pop\n      jump\t// out\n        /* \"contracts/caldata.sol\":335:473  function add2()external ... */\n    tag_13:\n        /* \"contracts/caldata.sol\":368:384  int [6]storage a */\n      0x00\n        /* \"contracts/caldata.sol\":400:403  222 */\n      0xde\n        /* \"contracts/caldata.sol\":395:396  a */\n      dup2\n        /* \"contracts/caldata.sol\":397:398  0 */\n      0x00\n        /* \"contracts/caldata.sol\":395:399  a[0] */\n      0x06\n      dup2\n      lt\n      tag_30\n      jumpi\n      tag_31\n      tag_32\n      jump\t// in\n    tag_31:\n    tag_30:\n      add\n        /* \"contracts/caldata.sol\":395:403  a[0]=222 */\n      dup2\n      swap1\n      sstore\n      pop\n        /* \"contracts/caldata.sol\":361:473  {... */\n      pop\n        /* \"contracts/caldata.sol\":335:473  function add2()external ... */\n      jump\t// out\n        /* \"contracts/caldata.sol\":88:105  int [6]public arr */\n    tag_17:\n      0x00\n      dup2\n      0x06\n      dup2\n      lt\n      tag_34\n      jumpi\n      0x00\n      dup1\n      revert\n    tag_34:\n      add\n      0x00\n      swap2\n      pop\n      swap1\n      pop\n      sload\n      dup2\n      jump\t// out\n        /* \"contracts/caldata.sol\":108:165  function add( int[6] memory a)external ... */\n    tag_23:\n        /* \"contracts/caldata.sol\":160:161  a */\n      dup1\n        /* \"contracts/caldata.sol\":156:159  arr */\n      0x00\n        /* \"contracts/caldata.sol\":156:161  arr=a */\n      swap1\n      0x06\n      tag_37\n      swap3\n      swap2\n      swap1\n      tag_38\n      jump\t// in\n    tag_37:\n      pop\n        /* \"contracts/caldata.sol\":108:165  function add( int[6] memory a)external ... */\n      pop\n      jump\t// out\n        /* \"contracts/caldata.sol\":475:559  function changet(uint index ,int newvalue)external... */\n    tag_27:\n        /* \"contracts/caldata.sol\":545:553  newvalue */\n      dup1\n        /* \"contracts/caldata.sol\":534:537  arr */\n      0x00\n        /* \"contracts/caldata.sol\":538:543  index */\n      dup4\n        /* \"contracts/caldata.sol\":534:544  arr[index] */\n      0x06\n      dup2\n      lt\n      tag_40\n      jumpi\n      tag_41\n      tag_32\n      jump\t// in\n    tag_41:\n    tag_40:\n      add\n        /* \"contracts/caldata.sol\":534:553  arr[index]=newvalue */\n      dup2\n      swap1\n      sstore\n      pop\n        /* \"contracts/caldata.sol\":475:559  function changet(uint index ,int newvalue)external... */\n      pop\n      pop\n      jump\t// out\n    tag_38:\n      dup3\n      0x06\n      dup2\n      add\n      swap3\n      dup3\n      iszero\n      tag_43\n      jumpi\n      swap2\n      0x20\n      mul\n      dup3\n      add\n    tag_44:\n      dup3\n      dup2\n      gt\n      iszero\n      tag_45\n      jumpi\n      dup3\n      mload\n      dup3\n      sstore\n      swap2\n      0x20\n      add\n      swap2\n      swap1\n      0x01\n      add\n      swap1\n      jump(tag_44)\n    tag_45:\n    tag_43:\n      pop\n      swap1\n      pop\n      tag_46\n      swap2\n      swap1\n      tag_47\n      jump\t// in\n    tag_46:\n      pop\n      swap1\n      jump\t// out\n    tag_47:\n    tag_48:\n      dup1\n      dup3\n      gt\n      iszero\n      tag_49\n      jumpi\n      0x00\n      dup2\n      0x00\n      swap1\n      sstore\n      pop\n      0x01\n      add\n      jump(tag_48)\n    tag_49:\n      pop\n      swap1\n      jump\t// out\n        /* \"#utility.yul\":7:82   */\n    tag_50:\n        /* \"#utility.yul\":40:46   */\n      0x00\n        /* \"#utility.yul\":73:75   */\n      0x40\n        /* \"#utility.yul\":67:76   */\n      mload\n        /* \"#utility.yul\":57:76   */\n      swap1\n      pop\n        /* \"#utility.yul\":7:82   */\n      swap1\n      jump\t// out\n        /* \"#utility.yul\":88:205   */\n    tag_51:\n        /* \"#utility.yul\":197:198   */\n      0x00\n        /* \"#utility.yul\":194:195   */\n      dup1\n        /* \"#utility.yul\":187:199   */\n      revert\n        /* \"#utility.yul\":334:451   */\n    tag_53:\n        /* \"#utility.yul\":443:444   */\n      0x00\n        /* \"#utility.yul\":440:441   */\n      dup1\n        /* \"#utility.yul\":433:445   */\n      revert\n        /* \"#utility.yul\":474:722   */\n    tag_54:\n        /* \"#utility.yul\":544:552   */\n      0x00\n        /* \"#utility.yul\":575:581   */\n      dup2\n        /* \"#utility.yul\":563:581   */\n      swap1\n      pop\n        /* \"#utility.yul\":628:631   */\n      dup3\n        /* \"#utility.yul\":620:624   */\n      0x20\n        /* \"#utility.yul\":614:618   */\n      0x06\n        /* \"#utility.yul\":610:625   */\n      mul\n        /* \"#utility.yul\":600:608   */\n      dup3\n        /* \"#utility.yul\":596:626   */\n      add\n        /* \"#utility.yul\":593:632   */\n      gt\n        /* \"#utility.yul\":590:716   */\n      iszero\n      tag_76\n      jumpi\n        /* \"#utility.yul\":635:714   */\n      tag_77\n      tag_53\n      jump\t// in\n    tag_77:\n        /* \"#utility.yul\":590:716   */\n    tag_76:\n        /* \"#utility.yul\":474:722   */\n      swap3\n      swap2\n      pop\n      pop\n      jump\t// out\n        /* \"#utility.yul\":728:1106   */\n    tag_10:\n        /* \"#utility.yul\":811:817   */\n      0x00\n        /* \"#utility.yul\":860:863   */\n      0xc0\n        /* \"#utility.yul\":848:857   */\n      dup3\n        /* \"#utility.yul\":839:846   */\n      dup5\n        /* \"#utility.yul\":835:858   */\n      sub\n        /* \"#utility.yul\":831:864   */\n      slt\n        /* \"#utility.yul\":828:948   */\n      iszero\n      tag_79\n      jumpi\n        /* \"#utility.yul\":867:946   */\n      tag_80\n      tag_51\n      jump\t// in\n    tag_80:\n        /* \"#utility.yul\":828:948   */\n    tag_79:\n        /* \"#utility.yul\":987:988   */\n      0x00\n        /* \"#utility.yul\":1012:1089   */\n      tag_81\n        /* \"#utility.yul\":1081:1088   */\n      dup5\n        /* \"#utility.yul\":1072:1078   */\n      dup3\n        /* \"#utility.yul\":1061:1070   */\n      dup6\n        /* \"#utility.yul\":1057:1079   */\n      add\n        /* \"#utility.yul\":1012:1089   */\n      tag_54\n      jump\t// in\n    tag_81:\n        /* \"#utility.yul\":1002:1089   */\n      swap2\n      pop\n        /* \"#utility.yul\":958:1099   */\n      pop\n        /* \"#utility.yul\":728:1106   */\n      swap3\n      swap2\n      pop\n      pop\n      jump\t// out\n        /* \"#utility.yul\":1112:1189   */\n    tag_55:\n        /* \"#utility.yul\":1149:1156   */\n      0x00\n        /* \"#utility.yul\":1178:1183   */\n      dup2\n        /* \"#utility.yul\":1167:1183   */\n      swap1\n      pop\n        /* \"#utility.yul\":1112:1189   */\n      swap2\n      swap1\n      pop\n      jump\t// out\n        /* \"#utility.yul\":1195:1317   */\n    tag_56:\n        /* \"#utility.yul\":1268:1292   */\n      tag_84\n        /* \"#utility.yul\":1286:1291   */\n      dup2\n        /* \"#utility.yul\":1268:1292   */\n      tag_55\n      jump\t// in\n    tag_84:\n        /* \"#utility.yul\":1261:1266   */\n      dup2\n        /* \"#utility.yul\":1258:1293   */\n      eq\n        /* \"#utility.yul\":1248:1311   */\n      tag_85\n      jumpi\n        /* \"#utility.yul\":1307:1308   */\n      0x00\n        /* \"#utility.yul\":1304:1305   */\n      dup1\n        /* \"#utility.yul\":1297:1309   */\n      revert\n        /* \"#utility.yul\":1248:1311   */\n    tag_85:\n        /* \"#utility.yul\":1195:1317   */\n      pop\n      jump\t// out\n        /* \"#utility.yul\":1323:1462   */\n    tag_57:\n        /* \"#utility.yul\":1369:1374   */\n      0x00\n        /* \"#utility.yul\":1407:1413   */\n      dup2\n        /* \"#utility.yul\":1394:1414   */\n      calldataload\n        /* \"#utility.yul\":1385:1414   */\n      swap1\n      pop\n        /* \"#utility.yul\":1423:1456   */\n      tag_87\n        /* \"#utility.yul\":1450:1455   */\n      dup2\n        /* \"#utility.yul\":1423:1456   */\n      tag_56\n      jump\t// in\n    tag_87:\n        /* \"#utility.yul\":1323:1462   */\n      swap3\n      swap2\n      pop\n      pop\n      jump\t// out\n        /* \"#utility.yul\":1468:1797   */\n    tag_16:\n        /* \"#utility.yul\":1527:1533   */\n      0x00\n        /* \"#utility.yul\":1576:1578   */\n      0x20\n        /* \"#utility.yul\":1564:1573   */\n      dup3\n        /* \"#utility.yul\":1555:1562   */\n      dup5\n        /* \"#utility.yul\":1551:1574   */\n      sub\n        /* \"#utility.yul\":1547:1579   */\n      slt\n        /* \"#utility.yul\":1544:1663   */\n      iszero\n      tag_89\n      jumpi\n        /* \"#utility.yul\":1582:1661   */\n      tag_90\n      tag_51\n      jump\t// in\n    tag_90:\n        /* \"#utility.yul\":1544:1663   */\n    tag_89:\n        /* \"#utility.yul\":1702:1703   */\n      0x00\n        /* \"#utility.yul\":1727:1780   */\n      tag_91\n        /* \"#utility.yul\":1772:1779   */\n      dup5\n        /* \"#utility.yul\":1763:1769   */\n      dup3\n        /* \"#utility.yul\":1752:1761   */\n      dup6\n        /* \"#utility.yul\":1748:1770   */\n      add\n        /* \"#utility.yul\":1727:1780   */\n      tag_57\n      jump\t// in\n    tag_91:\n        /* \"#utility.yul\":1717:1780   */\n      swap2\n      pop\n        /* \"#utility.yul\":1673:1790   */\n      pop\n        /* \"#utility.yul\":1468:1797   */\n      swap3\n      swap2\n      pop\n      pop\n      jump\t// out\n        /* \"#utility.yul\":1803:1879   */\n    tag_58:\n        /* \"#utility.yul\":1839:1846   */\n      0x00\n        /* \"#utility.yul\":1868:1873   */\n      dup2\n        /* \"#utility.yul\":1857:1873   */\n      swap1\n      pop\n        /* \"#utility.yul\":1803:1879   */\n      swap2\n      swap1\n      pop\n      jump\t// out\n        /* \"#utility.yul\":1885:2000   */\n    tag_59:\n        /* \"#utility.yul\":1970:1993   */\n      tag_94\n        /* \"#utility.yul\":1987:1992   */\n      dup2\n        /* \"#utility.yul\":1970:1993   */\n      tag_58\n      jump\t// in\n    tag_94:\n        /* \"#utility.yul\":1965:1968   */\n      dup3\n        /* \"#utility.yul\":1958:1994   */\n      mstore\n        /* \"#utility.yul\":1885:2000   */\n      pop\n      pop\n      jump\t// out\n        /* \"#utility.yul\":2006:2224   */\n    tag_19:\n        /* \"#utility.yul\":2097:2101   */\n      0x00\n        /* \"#utility.yul\":2135:2137   */\n      0x20\n        /* \"#utility.yul\":2124:2133   */\n      dup3\n        /* \"#utility.yul\":2120:2138   */\n      add\n        /* \"#utility.yul\":2112:2138   */\n      swap1\n      pop\n        /* \"#utility.yul\":2148:2217   */\n      tag_96\n        /* \"#utility.yul\":2214:2215   */\n      0x00\n        /* \"#utility.yul\":2203:2212   */\n      dup4\n        /* \"#utility.yul\":2199:2216   */\n      add\n        /* \"#utility.yul\":2190:2196   */\n      dup5\n        /* \"#utility.yul\":2148:2217   */\n      tag_59\n      jump\t// in\n    tag_96:\n        /* \"#utility.yul\":2006:2224   */\n      swap3\n      swap2\n      pop\n      pop\n      jump\t// out\n        /* \"#utility.yul\":2230:2347   */\n    tag_60:\n        /* \"#utility.yul\":2339:2340   */\n      0x00\n        /* \"#utility.yul\":2336:2337   */\n      dup1\n        /* \"#utility.yul\":2329:2341   */\n      revert\n        /* \"#utility.yul\":2353:2455   */\n    tag_61:\n        /* \"#utility.yul\":2394:2400   */\n      0x00\n        /* \"#utility.yul\":2445:2447   */\n      0x1f\n        /* \"#utility.yul\":2441:2448   */\n      not\n        /* \"#utility.yul\":2436:2438   */\n      0x1f\n        /* \"#utility.yul\":2429:2434   */\n      dup4\n        /* \"#utility.yul\":2425:2439   */\n      add\n        /* \"#utility.yul\":2421:2449   */\n      and\n        /* \"#utility.yul\":2411:2449   */\n      swap1\n      pop\n        /* \"#utility.yul\":2353:2455   */\n      swap2\n      swap1\n      pop\n      jump\t// out\n        /* \"#utility.yul\":2461:2641   */\n    tag_62:\n        /* \"#utility.yul\":2509:2586   */\n      0x4e487b7100000000000000000000000000000000000000000000000000000000\n        /* \"#utility.yul\":2506:2507   */\n      0x00\n        /* \"#utility.yul\":2499:2587   */\n      mstore\n        /* \"#utility.yul\":2606:2610   */\n      0x41\n        /* \"#utility.yul\":2603:2604   */\n      0x04\n        /* \"#utility.yul\":2596:2611   */\n      mstore\n        /* \"#utility.yul\":2630:2634   */\n      0x24\n        /* \"#utility.yul\":2627:2628   */\n      0x00\n        /* \"#utility.yul\":2620:2635   */\n      revert\n        /* \"#utility.yul\":2647:2928   */\n    tag_63:\n        /* \"#utility.yul\":2730:2757   */\n      tag_101\n        /* \"#utility.yul\":2752:2756   */\n      dup3\n        /* \"#utility.yul\":2730:2757   */\n      tag_61\n      jump\t// in\n    tag_101:\n        /* \"#utility.yul\":2722:2728   */\n      dup2\n        /* \"#utility.yul\":2718:2758   */\n      add\n        /* \"#utility.yul\":2860:2866   */\n      dup2\n        /* \"#utility.yul\":2848:2858   */\n      dup2\n        /* \"#utility.yul\":2845:2867   */\n      lt\n        /* \"#utility.yul\":2824:2842   */\n      0xffffffffffffffff\n        /* \"#utility.yul\":2812:2822   */\n      dup3\n        /* \"#utility.yul\":2809:2843   */\n      gt\n        /* \"#utility.yul\":2806:2868   */\n      or\n        /* \"#utility.yul\":2803:2891   */\n      iszero\n      tag_102\n      jumpi\n        /* \"#utility.yul\":2871:2889   */\n      tag_103\n      tag_62\n      jump\t// in\n    tag_103:\n        /* \"#utility.yul\":2803:2891   */\n    tag_102:\n        /* \"#utility.yul\":2911:2921   */\n      dup1\n        /* \"#utility.yul\":2907:2909   */\n      0x40\n        /* \"#utility.yul\":2900:2922   */\n      mstore\n        /* \"#utility.yul\":2690:2928   */\n      pop\n        /* \"#utility.yul\":2647:2928   */\n      pop\n      pop\n      jump\t// out\n        /* \"#utility.yul\":2934:3063   */\n    tag_64:\n        /* \"#utility.yul\":2968:2974   */\n      0x00\n        /* \"#utility.yul\":2995:3015   */\n      tag_105\n      tag_50\n      jump\t// in\n    tag_105:\n        /* \"#utility.yul\":2985:3015   */\n      swap1\n      pop\n        /* \"#utility.yul\":3024:3057   */\n      tag_106\n        /* \"#utility.yul\":3052:3056   */\n      dup3\n        /* \"#utility.yul\":3044:3050   */\n      dup3\n        /* \"#utility.yul\":3024:3057   */\n      tag_63\n      jump\t// in\n    tag_106:\n        /* \"#utility.yul\":2934:3063   */\n      swap2\n      swap1\n      pop\n      jump\t// out\n        /* \"#utility.yul\":3069:3317   */\n    tag_65:\n        /* \"#utility.yul\":3143:3147   */\n      0x00\n        /* \"#utility.yul\":3233:3251   */\n      0xffffffffffffffff\n        /* \"#utility.yul\":3225:3231   */\n      dup3\n        /* \"#utility.yul\":3222:3252   */\n      gt\n        /* \"#utility.yul\":3219:3275   */\n      iszero\n      tag_108\n      jumpi\n        /* \"#utility.yul\":3255:3273   */\n      tag_109\n      tag_62\n      jump\t// in\n    tag_109:\n        /* \"#utility.yul\":3219:3275   */\n    tag_108:\n        /* \"#utility.yul\":3305:3309   */\n      0x20\n        /* \"#utility.yul\":3297:3303   */\n      dup3\n        /* \"#utility.yul\":3293:3310   */\n      mul\n        /* \"#utility.yul\":3285:3310   */\n      swap1\n      pop\n        /* \"#utility.yul\":3069:3317   */\n      swap2\n      swap1\n      pop\n      jump\t// out\n        /* \"#utility.yul\":3323:3443   */\n    tag_66:\n        /* \"#utility.yul\":3395:3418   */\n      tag_111\n        /* \"#utility.yul\":3412:3417   */\n      dup2\n        /* \"#utility.yul\":3395:3418   */\n      tag_58\n      jump\t// in\n    tag_111:\n        /* \"#utility.yul\":3388:3393   */\n      dup2\n        /* \"#utility.yul\":3385:3419   */\n      eq\n        /* \"#utility.yul\":3375:3437   */\n      tag_112\n      jumpi\n        /* \"#utility.yul\":3433:3434   */\n      0x00\n        /* \"#utility.yul\":3430:3431   */\n      dup1\n        /* \"#utility.yul\":3423:3435   */\n      revert\n        /* \"#utility.yul\":3375:3437   */\n    tag_112:\n        /* \"#utility.yul\":3323:3443   */\n      pop\n      jump\t// out\n        /* \"#utility.yul\":3449:3586   */\n    tag_67:\n        /* \"#utility.yul\":3494:3499   */\n      0x00\n        /* \"#utility.yul\":3532:3538   */\n      dup2\n        /* \"#utility.yul\":3519:3539   */\n      calldataload\n        /* \"#utility.yul\":3510:3539   */\n      swap1\n      pop\n        /* \"#utility.yul\":3548:3580   */\n      tag_114\n        /* \"#utility.yul\":3574:3579   */\n      dup2\n        /* \"#utility.yul\":3548:3580   */\n      tag_66\n      jump\t// in\n    tag_114:\n        /* \"#utility.yul\":3449:3586   */\n      swap3\n      swap2\n      pop\n      pop\n      jump\t// out\n        /* \"#utility.yul\":3609:4249   */\n    tag_68:\n        /* \"#utility.yul\":3702:3707   */\n      0x00\n        /* \"#utility.yul\":3727:3805   */\n      tag_116\n        /* \"#utility.yul\":3743:3804   */\n      tag_117\n        /* \"#utility.yul\":3797:3803   */\n      dup5\n        /* \"#utility.yul\":3743:3804   */\n      tag_65\n      jump\t// in\n    tag_117:\n        /* \"#utility.yul\":3727:3805   */\n      tag_64\n      jump\t// in\n    tag_116:\n        /* \"#utility.yul\":3718:3805   */\n      swap1\n      pop\n        /* \"#utility.yul\":3825:3830   */\n      dup1\n        /* \"#utility.yul\":3878:3882   */\n      0x20\n        /* \"#utility.yul\":3870:3876   */\n      dup5\n        /* \"#utility.yul\":3866:3883   */\n      mul\n        /* \"#utility.yul\":3858:3864   */\n      dup4\n        /* \"#utility.yul\":3854:3884   */\n      add\n        /* \"#utility.yul\":3907:3910   */\n      dup6\n        /* \"#utility.yul\":3899:3905   */\n      dup2\n        /* \"#utility.yul\":3896:3911   */\n      gt\n        /* \"#utility.yul\":3893:4015   */\n      iszero\n      tag_118\n      jumpi\n        /* \"#utility.yul\":3926:4005   */\n      tag_119\n      tag_53\n      jump\t// in\n    tag_119:\n        /* \"#utility.yul\":3893:4015   */\n    tag_118:\n        /* \"#utility.yul\":4041:4047   */\n      dup4\n        /* \"#utility.yul\":4024:4243   */\n    tag_120:\n        /* \"#utility.yul\":4058:4064   */\n      dup2\n        /* \"#utility.yul\":4053:4056   */\n      dup2\n        /* \"#utility.yul\":4050:4065   */\n      lt\n        /* \"#utility.yul\":4024:4243   */\n      iszero\n      tag_122\n      jumpi\n        /* \"#utility.yul\":4133:4136   */\n      dup1\n        /* \"#utility.yul\":4162:4198   */\n      tag_123\n        /* \"#utility.yul\":4194:4197   */\n      dup9\n        /* \"#utility.yul\":4182:4192   */\n      dup3\n        /* \"#utility.yul\":4162:4198   */\n      tag_67\n      jump\t// in\n    tag_123:\n        /* \"#utility.yul\":4157:4160   */\n      dup5\n        /* \"#utility.yul\":4150:4199   */\n      mstore\n        /* \"#utility.yul\":4228:4232   */\n      0x20\n        /* \"#utility.yul\":4223:4226   */\n      dup5\n        /* \"#utility.yul\":4219:4233   */\n      add\n        /* \"#utility.yul\":4212:4233   */\n      swap4\n      pop\n        /* \"#utility.yul\":4100:4243   */\n      pop\n        /* \"#utility.yul\":4084:4088   */\n      0x20\n        /* \"#utility.yul\":4079:4082   */\n      dup2\n        /* \"#utility.yul\":4075:4089   */\n      add\n        /* \"#utility.yul\":4068:4089   */\n      swap1\n      pop\n        /* \"#utility.yul\":4024:4243   */\n      jump(tag_120)\n    tag_122:\n        /* \"#utility.yul\":4028:4049   */\n      pop\n        /* \"#utility.yul\":3708:4249   */\n      pop\n      pop\n        /* \"#utility.yul\":3609:4249   */\n      swap4\n      swap3\n      pop\n      pop\n      pop\n      jump\t// out\n        /* \"#utility.yul\":4272:4609   */\n    tag_69:\n        /* \"#utility.yul\":4340:4345   */\n      0x00\n        /* \"#utility.yul\":4389:4392   */\n      dup3\n        /* \"#utility.yul\":4382:4386   */\n      0x1f\n        /* \"#utility.yul\":4374:4380   */\n      dup4\n        /* \"#utility.yul\":4370:4387   */\n      add\n        /* \"#utility.yul\":4366:4393   */\n      slt\n        /* \"#utility.yul\":4356:4478   */\n      tag_125\n      jumpi\n        /* \"#utility.yul\":4397:4476   */\n      tag_126\n      tag_60\n      jump\t// in\n    tag_126:\n        /* \"#utility.yul\":4356:4478   */\n    tag_125:\n        /* \"#utility.yul\":4501:4505   */\n      0x06\n        /* \"#utility.yul\":4523:4603   */\n      tag_127\n        /* \"#utility.yul\":4599:4602   */\n      dup5\n        /* \"#utility.yul\":4591:4597   */\n      dup3\n        /* \"#utility.yul\":4583:4589   */\n      dup6\n        /* \"#utility.yul\":4523:4603   */\n      tag_68\n      jump\t// in\n    tag_127:\n        /* \"#utility.yul\":4514:4603   */\n      swap2\n      pop\n        /* \"#utility.yul\":4346:4609   */\n      pop\n        /* \"#utility.yul\":4272:4609   */\n      swap3\n      swap2\n      pop\n      pop\n      jump\t// out\n        /* \"#utility.yul\":4615:4989   */\n    tag_22:\n        /* \"#utility.yul\":4696:4702   */\n      0x00\n        /* \"#utility.yul\":4745:4748   */\n      0xc0\n        /* \"#utility.yul\":4733:4742   */\n      dup3\n        /* \"#utility.yul\":4724:4731   */\n      dup5\n        /* \"#utility.yul\":4720:4743   */\n      sub\n        /* \"#utility.yul\":4716:4749   */\n      slt\n        /* \"#utility.yul\":4713:4833   */\n      iszero\n      tag_129\n      jumpi\n        /* \"#utility.yul\":4752:4831   */\n      tag_130\n      tag_51\n      jump\t// in\n    tag_130:\n        /* \"#utility.yul\":4713:4833   */\n    tag_129:\n        /* \"#utility.yul\":4872:4873   */\n      0x00\n        /* \"#utility.yul\":4897:4972   */\n      tag_131\n        /* \"#utility.yul\":4964:4971   */\n      dup5\n        /* \"#utility.yul\":4955:4961   */\n      dup3\n        /* \"#utility.yul\":4944:4953   */\n      dup6\n        /* \"#utility.yul\":4940:4962   */\n      add\n        /* \"#utility.yul\":4897:4972   */\n      tag_69\n      jump\t// in\n    tag_131:\n        /* \"#utility.yul\":4887:4972   */\n      swap2\n      pop\n        /* \"#utility.yul\":4843:4982   */\n      pop\n        /* \"#utility.yul\":4615:4989   */\n      swap3\n      swap2\n      pop\n      pop\n      jump\t// out\n        /* \"#utility.yul\":4995:5467   */\n    tag_26:\n        /* \"#utility.yul\":5062:5068   */\n      0x00\n        /* \"#utility.yul\":5070:5076   */\n      dup1\n        /* \"#utility.yul\":5119:5121   */\n      0x40\n        /* \"#utility.yul\":5107:5116   */\n      dup4\n        /* \"#utility.yul\":5098:5105   */\n      dup6\n        /* \"#utility.yul\":5094:5117   */\n      sub\n        /* \"#utility.yul\":5090:5122   */\n      slt\n        /* \"#utility.yul\":5087:5206   */\n      iszero\n      tag_133\n      jumpi\n        /* \"#utility.yul\":5125:5204   */\n      tag_134\n      tag_51\n      jump\t// in\n    tag_134:\n        /* \"#utility.yul\":5087:5206   */\n    tag_133:\n        /* \"#utility.yul\":5245:5246   */\n      0x00\n        /* \"#utility.yul\":5270:5323   */\n      tag_135\n        /* \"#utility.yul\":5315:5322   */\n      dup6\n        /* \"#utility.yul\":5306:5312   */\n      dup3\n        /* \"#utility.yul\":5295:5304   */\n      dup7\n        /* \"#utility.yul\":5291:5313   */\n      add\n        /* \"#utility.yul\":5270:5323   */\n      tag_57\n      jump\t// in\n    tag_135:\n        /* \"#utility.yul\":5260:5323   */\n      swap3\n      pop\n        /* \"#utility.yul\":5216:5333   */\n      pop\n        /* \"#utility.yul\":5372:5374   */\n      0x20\n        /* \"#utility.yul\":5398:5450   */\n      tag_136\n        /* \"#utility.yul\":5442:5449   */\n      dup6\n        /* \"#utility.yul\":5433:5439   */\n      dup3\n        /* \"#utility.yul\":5422:5431   */\n      dup7\n        /* \"#utility.yul\":5418:5440   */\n      add\n        /* \"#utility.yul\":5398:5450   */\n      tag_67\n      jump\t// in\n    tag_136:\n        /* \"#utility.yul\":5388:5450   */\n      swap2\n      pop\n        /* \"#utility.yul\":5343:5460   */\n      pop\n        /* \"#utility.yul\":4995:5467   */\n      swap3\n      pop\n      swap3\n      swap1\n      pop\n      jump\t// out\n        /* \"#utility.yul\":5473:5653   */\n    tag_32:\n        /* \"#utility.yul\":5521:5598   */\n      0x4e487b7100000000000000000000000000000000000000000000000000000000\n        /* \"#utility.yul\":5518:5519   */\n      0x00\n        /* \"#utility.yul\":5511:5599   */\n      mstore\n        /* \"#utility.yul\":5618:5622   */\n      0x32\n        /* \"#utility.yul\":5615:5616   */\n      0x04\n        /* \"#utility.yul\":5608:5623   */\n      mstore\n        /* \"#utility.yul\":5642:5646   */\n      0x24\n        /* \"#utility.yul\":5639:5640   */\n      0x00\n        /* \"#utility.yul\":5632:5647   */\n      revert\n\n    auxdata: 0xa2646970667358221220bef3fe493d549314418e9011a5ac55f469fb82a904c9638605db88873b53af8264736f6c634300081a0033\n}\n",
				"bytecode": {
					"linkReferences": {},
					"object": "6080604052348015600e575f80fd5b506104c88061001c5f395ff3fe608060405234801561000f575f80fd5b5060043610610055575f3560e01c806350304426146100595780636c1f222f1461007557806371e5ee5f1461007f578063dc36bf18146100af578063df9c9062146100cb575b5f80fd5b610073600480360381019061006e91906101de565b6100e7565b005b61007d6100ea565b005b6100996004803603810190610094919061023c565b610108565b6040516100a6919061027f565b60405180910390f35b6100c960048036038101906100c491906103fc565b610120565b005b6100e560048036038101906100e09190610427565b610134565b005b50565b5f60de815f60068110610100576100ff610465565b5b018190555050565b5f8160068110610116575f80fd5b015f915090505481565b805f906006610130929190610151565b5050565b805f836006811061014857610147610465565b5b01819055505050565b8260068101928215610180579160200282015b8281111561017f578251825591602001919060010190610164565b5b50905061018d9190610191565b5090565b5b808211156101a8575f815f905550600101610192565b5090565b5f604051905090565b5f80fd5b5f80fd5b5f819050826020600602820111156101d8576101d76101b9565b5b92915050565b5f60c082840312156101f3576101f26101b5565b5b5f610200848285016101bd565b91505092915050565b5f819050919050565b61021b81610209565b8114610225575f80fd5b50565b5f8135905061023681610212565b92915050565b5f60208284031215610251576102506101b5565b5b5f61025e84828501610228565b91505092915050565b5f819050919050565b61027981610267565b82525050565b5f6020820190506102925f830184610270565b92915050565b5f80fd5b5f601f19601f8301169050919050565b7f4e487b71000000000000000000000000000000000000000000000000000000005f52604160045260245ffd5b6102e28261029c565b810181811067ffffffffffffffff82111715610301576103006102ac565b5b80604052505050565b5f6103136101ac565b905061031f82826102d9565b919050565b5f67ffffffffffffffff82111561033e5761033d6102ac565b5b602082029050919050565b61035281610267565b811461035c575f80fd5b50565b5f8135905061036d81610349565b92915050565b5f61038561038084610324565b61030a565b9050806020840283018581111561039f5761039e6101b9565b5b835b818110156103c857806103b4888261035f565b8452602084019350506020810190506103a1565b5050509392505050565b5f82601f8301126103e6576103e5610298565b5b60066103f3848285610373565b91505092915050565b5f60c08284031215610411576104106101b5565b5b5f61041e848285016103d2565b91505092915050565b5f806040838503121561043d5761043c6101b5565b5b5f61044a85828601610228565b925050602061045b8582860161035f565b9150509250929050565b7f4e487b71000000000000000000000000000000000000000000000000000000005f52603260045260245ffdfea2646970667358221220bef3fe493d549314418e9011a5ac55f469fb82a904c9638605db88873b53af8264736f6c634300081a0033",
					"opcodes": "PUSH1 0x80 PUSH1 0x40 MSTORE CALLVALUE DUP1 ISZERO PUSH1 0xE JUMPI PUSH0 DUP1 REVERT JUMPDEST POP PUSH2 0x4C8 DUP1 PUSH2 0x1C PUSH0 CODECOPY PUSH0 RETURN INVALID PUSH1 0x80 PUSH1 0x40 MSTORE CALLVALUE DUP1 ISZERO PUSH2 0xF JUMPI PUSH0 DUP1 REVERT JUMPDEST POP PUSH1 0x4 CALLDATASIZE LT PUSH2 0x55 JUMPI PUSH0 CALLDATALOAD PUSH1 0xE0 SHR DUP1 PUSH4 0x50304426 EQ PUSH2 0x59 JUMPI DUP1 PUSH4 0x6C1F222F EQ PUSH2 0x75 JUMPI DUP1 PUSH4 0x71E5EE5F EQ PUSH2 0x7F JUMPI DUP1 PUSH4 0xDC36BF18 EQ PUSH2 0xAF JUMPI DUP1 PUSH4 0xDF9C9062 EQ PUSH2 0xCB JUMPI JUMPDEST PUSH0 DUP1 REVERT JUMPDEST PUSH2 0x73 PUSH1 0x4 DUP1 CALLDATASIZE SUB DUP2 ADD SWAP1 PUSH2 0x6E SWAP2 SWAP1 PUSH2 0x1DE JUMP JUMPDEST PUSH2 0xE7 JUMP JUMPDEST STOP JUMPDEST PUSH2 0x7D PUSH2 0xEA JUMP JUMPDEST STOP JUMPDEST PUSH2 0x99 PUSH1 0x4 DUP1 CALLDATASIZE SUB DUP2 ADD SWAP1 PUSH2 0x94 SWAP2 SWAP1 PUSH2 0x23C JUMP JUMPDEST PUSH2 0x108 JUMP JUMPDEST PUSH1 0x40 MLOAD PUSH2 0xA6 SWAP2 SWAP1 PUSH2 0x27F JUMP JUMPDEST PUSH1 0x40 MLOAD DUP1 SWAP2 SUB SWAP1 RETURN JUMPDEST PUSH2 0xC9 PUSH1 0x4 DUP1 CALLDATASIZE SUB DUP2 ADD SWAP1 PUSH2 0xC4 SWAP2 SWAP1 PUSH2 0x3FC JUMP JUMPDEST PUSH2 0x120 JUMP JUMPDEST STOP JUMPDEST PUSH2 0xE5 PUSH1 0x4 DUP1 CALLDATASIZE SUB DUP2 ADD SWAP1 PUSH2 0xE0 SWAP2 SWAP1 PUSH2 0x427 JUMP JUMPDEST PUSH2 0x134 JUMP JUMPDEST STOP JUMPDEST POP JUMP JUMPDEST PUSH0 PUSH1 0xDE DUP2 PUSH0 PUSH1 0x6 DUP2 LT PUSH2 0x100 JUMPI PUSH2 0xFF PUSH2 0x465 JUMP JUMPDEST JUMPDEST ADD DUP2 SWAP1 SSTORE POP POP JUMP JUMPDEST PUSH0 DUP2 PUSH1 0x6 DUP2 LT PUSH2 0x116 JUMPI PUSH0 DUP1 REVERT JUMPDEST ADD PUSH0 SWAP2 POP SWAP1 POP SLOAD DUP2 JUMP JUMPDEST DUP1 PUSH0 SWAP1 PUSH1 0x6 PUSH2 0x130 SWAP3 SWAP2 SWAP1 PUSH2 0x151 JUMP JUMPDEST POP POP JUMP JUMPDEST DUP1 PUSH0 DUP4 PUSH1 0x6 DUP2 LT PUSH2 0x148 JUMPI PUSH2 0x147 PUSH2 0x465 JUMP JUMPDEST JUMPDEST ADD DUP2 SWAP1 SSTORE POP POP POP JUMP JUMPDEST DUP3 PUSH1 0x6 DUP2 ADD SWAP3 DUP3 ISZERO PUSH2 0x180 JUMPI SWAP2 PUSH1 0x20 MUL DUP3 ADD JUMPDEST DUP3 DUP2 GT ISZERO PUSH2 0x17F JUMPI DUP3 MLOAD DUP3 SSTORE SWAP2 PUSH1 0x20 ADD SWAP2 SWAP1 PUSH1 0x1 ADD SWAP1 PUSH2 0x164 JUMP JUMPDEST JUMPDEST POP SWAP1 POP PUSH2 0x18D SWAP2 SWAP1 PUSH2 0x191 JUMP JUMPDEST POP SWAP1 JUMP JUMPDEST JUMPDEST DUP1 DUP3 GT ISZERO PUSH2 0x1A8 JUMPI PUSH0 DUP2 PUSH0 SWAP1 SSTORE POP PUSH1 0x1 ADD PUSH2 0x192 JUMP JUMPDEST POP SWAP1 JUMP JUMPDEST PUSH0 PUSH1 0x40 MLOAD SWAP1 POP SWAP1 JUMP JUMPDEST PUSH0 DUP1 REVERT JUMPDEST PUSH0 DUP1 REVERT JUMPDEST PUSH0 DUP2 SWAP1 POP DUP3 PUSH1 0x20 PUSH1 0x6 MUL DUP3 ADD GT ISZERO PUSH2 0x1D8 JUMPI PUSH2 0x1D7 PUSH2 0x1B9 JUMP JUMPDEST JUMPDEST SWAP3 SWAP2 POP POP JUMP JUMPDEST PUSH0 PUSH1 0xC0 DUP3 DUP5 SUB SLT ISZERO PUSH2 0x1F3 JUMPI PUSH2 0x1F2 PUSH2 0x1B5 JUMP JUMPDEST JUMPDEST PUSH0 PUSH2 0x200 DUP5 DUP3 DUP6 ADD PUSH2 0x1BD JUMP JUMPDEST SWAP2 POP POP SWAP3 SWAP2 POP POP JUMP JUMPDEST PUSH0 DUP2 SWAP1 POP SWAP2 SWAP1 POP JUMP JUMPDEST PUSH2 0x21B DUP2 PUSH2 0x209 JUMP JUMPDEST DUP2 EQ PUSH2 0x225 JUMPI PUSH0 DUP1 REVERT JUMPDEST POP JUMP JUMPDEST PUSH0 DUP2 CALLDATALOAD SWAP1 POP PUSH2 0x236 DUP2 PUSH2 0x212 JUMP JUMPDEST SWAP3 SWAP2 POP POP JUMP JUMPDEST PUSH0 PUSH1 0x20 DUP3 DUP5 SUB SLT ISZERO PUSH2 0x251 JUMPI PUSH2 0x250 PUSH2 0x1B5 JUMP JUMPDEST JUMPDEST PUSH0 PUSH2 0x25E DUP5 DUP3 DUP6 ADD PUSH2 0x228 JUMP JUMPDEST SWAP2 POP POP SWAP3 SWAP2 POP POP JUMP JUMPDEST PUSH0 DUP2 SWAP1 POP SWAP2 SWAP1 POP JUMP JUMPDEST PUSH2 0x279 DUP2 PUSH2 0x267 JUMP JUMPDEST DUP3 MSTORE POP POP JUMP JUMPDEST PUSH0 PUSH1 0x20 DUP3 ADD SWAP1 POP PUSH2 0x292 PUSH0 DUP4 ADD DUP5 PUSH2 0x270 JUMP JUMPDEST SWAP3 SWAP2 POP POP JUMP JUMPDEST PUSH0 DUP1 REVERT JUMPDEST PUSH0 PUSH1 0x1F NOT PUSH1 0x1F DUP4 ADD AND SWAP1 POP SWAP2 SWAP1 POP JUMP JUMPDEST PUSH32 0x4E487B7100000000000000000000000000000000000000000000000000000000 PUSH0 MSTORE PUSH1 0x41 PUSH1 0x4 MSTORE PUSH1 0x24 PUSH0 REVERT JUMPDEST PUSH2 0x2E2 DUP3 PUSH2 0x29C JUMP JUMPDEST DUP2 ADD DUP2 DUP2 LT PUSH8 0xFFFFFFFFFFFFFFFF DUP3 GT OR ISZERO PUSH2 0x301 JUMPI PUSH2 0x300 PUSH2 0x2AC JUMP JUMPDEST JUMPDEST DUP1 PUSH1 0x40 MSTORE POP POP POP JUMP JUMPDEST PUSH0 PUSH2 0x313 PUSH2 0x1AC JUMP JUMPDEST SWAP1 POP PUSH2 0x31F DUP3 DUP3 PUSH2 0x2D9 JUMP JUMPDEST SWAP2 SWAP1 POP JUMP JUMPDEST PUSH0 PUSH8 0xFFFFFFFFFFFFFFFF DUP3 GT ISZERO PUSH2 0x33E JUMPI PUSH2 0x33D PUSH2 0x2AC JUMP JUMPDEST JUMPDEST PUSH1 0x20 DUP3 MUL SWAP1 POP SWAP2 SWAP1 POP JUMP JUMPDEST PUSH2 0x352 DUP2 PUSH2 0x267 JUMP JUMPDEST DUP2 EQ PUSH2 0x35C JUMPI PUSH0 DUP1 REVERT JUMPDEST POP JUMP JUMPDEST PUSH0 DUP2 CALLDATALOAD SWAP1 POP PUSH2 0x36D DUP2 PUSH2 0x349 JUMP JUMPDEST SWAP3 SWAP2 POP POP JUMP JUMPDEST PUSH0 PUSH2 0x385 PUSH2 0x380 DUP5 PUSH2 0x324 JUMP JUMPDEST PUSH2 0x30A JUMP JUMPDEST SWAP1 POP DUP1 PUSH1 0x20 DUP5 MUL DUP4 ADD DUP6 DUP2 GT ISZERO PUSH2 0x39F JUMPI PUSH2 0x39E PUSH2 0x1B9 JUMP JUMPDEST JUMPDEST DUP4 JUMPDEST DUP2 DUP2 LT ISZERO PUSH2 0x3C8 JUMPI DUP1 PUSH2 0x3B4 DUP9 DUP3 PUSH2 0x35F JUMP JUMPDEST DUP5 MSTORE PUSH1 0x20 DUP5 ADD SWAP4 POP POP PUSH1 0x20 DUP2 ADD SWAP1 POP PUSH2 0x3A1 JUMP JUMPDEST POP POP POP SWAP4 SWAP3 POP POP POP JUMP JUMPDEST PUSH0 DUP3 PUSH1 0x1F DUP4 ADD SLT PUSH2 0x3E6 JUMPI PUSH2 0x3E5 PUSH2 0x298 JUMP JUMPDEST JUMPDEST PUSH1 0x6 PUSH2 0x3F3 DUP5 DUP3 DUP6 PUSH2 0x373 JUMP JUMPDEST SWAP2 POP POP SWAP3 SWAP2 POP POP JUMP JUMPDEST PUSH0 PUSH1 0xC0 DUP3 DUP5 SUB SLT ISZERO PUSH2 0x411 JUMPI PUSH2 0x410 PUSH2 0x1B5 JUMP JUMPDEST JUMPDEST PUSH0 PUSH2 0x41E DUP5 DUP3 DUP6 ADD PUSH2 0x3D2 JUMP JUMPDEST SWAP2 POP POP SWAP3 SWAP2 POP POP JUMP JUMPDEST PUSH0 DUP1 PUSH1 0x40 DUP4 DUP6 SUB SLT ISZERO PUSH2 0x43D JUMPI PUSH2 0x43C PUSH2 0x1B5 JUMP JUMPDEST JUMPDEST PUSH0 PUSH2 0x44A DUP6 DUP3 DUP7 ADD PUSH2 0x228 JUMP JUMPDEST SWAP3 POP POP PUSH1 0x20 PUSH2 0x45B DUP6 DUP3 DUP7 ADD PUSH2 0x35F JUMP JUMPDEST SWAP2 POP POP SWAP3 POP SWAP3 SWAP1 POP JUMP JUMPDEST PUSH32 0x4E487B7100000000000000000000000000000000000000000000000000000000 PUSH0 MSTORE PUSH1 0x32 PUSH1 0x4 MSTORE PUSH1 0x24 PUSH0 REVERT INVALID LOG2 PUSH5 0x6970667358 0x22 SLT KECCAK256 0xBE RETURN INVALID BLOBHASH RETURNDATASIZE SLOAD SWAP4 EQ COINBASE DUP15 SWAP1 GT 0xA5 0xAC SSTORE DELEGATECALL PUSH10 0xFB82A904C9638605DB88 DUP8 EXTCODESIZE MSTORE8 0xAF DUP3 PUSH5 0x736F6C6343 STOP ADDMOD BYTE STOP CALLER "
				},
				"gasEstimates": {
					"creation": {
						"codeDepositCost": "244800",
						"executionCost": "285",
						"totalCost": "245085"
					},
					"external": {
						"add(int256[6])": "infinite",
						"add1(int256[6])": "322",
						"add2()": "22289",
						"arr(uint256)": "2743",
						"changet(uint256,int256)": "22780"
					}
				},
				"methodIdentifiers": {
					"add(int256[6])": "dc36bf18",
					"add1(int256[6])": "50304426",
					"add2()": "6c1f222f",
					"arr(uint256)": "71e5ee5f",
					"changet(uint256,int256)": "df9c9062"
				}
			},
			"storageLayout": {
				"storage": [
					{
						"astId": 5,
						"contract": "contracts/caldata.sol:call",
						"label": "arr",
						"offset": 0,
						"slot": "0",
						"type": "t_array(t_int256)6_storage"
					}
				],
				"types": {
					"t_array(t_int256)6_storage": {
						"base": "t_int256",
						"encoding": "inplace",
						"label": "int256[6]",
						"numberOfBytes": "192"
					},
					"t_int256": {
						"encoding": "inplace",
						"label": "int256",
						"numberOfBytes": "32"
					}
				}
			},
			"userdoc": {
				"kind": "user",
				"methods": {},
				"version": 1
			}
		}
	}
}