{
	"contracts/mapping,sol.sol": {
		"map": {
			"abi": [
				{
					"inputs": [
						{
							"internalType": "string",
							"name": "name",
							"type": "string"
						},
						{
							"internalType": "uint256",
							"name": "amount",
							"type": "uint256"
						}
					],
					"name": "add",
					"outputs": [],
					"stateMutability": "nonpayable",
					"type": "function"
				},
				{
					"inputs": [
						{
							"internalType": "string",
							"name": "",
							"type": "string"
						}
					],
					"name": "m",
					"outputs": [
						{
							"internalType": "uint256",
							"name": "",
							"type": "uint256"
						}
					],
					"stateMutability": "view",
					"type": "function"
				},
				{
					"inputs": [
						{
							"internalType": "string",
							"name": "name",
							"type": "string"
						}
					],
					"name": "remove",
					"outputs": [],
					"stateMutability": "nonpayable",
					"type": "function"
				},
				{
					"inputs": [
						{
							"internalType": "string",
							"name": "name",
							"type": "string"
						},
						{
							"internalType": "uint256",
							"name": "newvalue",
							"type": "uint256"
						}
					],
					"name": "update",
					"outputs": [],
					"stateMutability": "nonpayable",
					"type": "function"
				}
			],
			"devdoc": {
				"kind": "dev",
				"methods": {},
				"version": 1
			},
			"evm": {
				"assembly": "    /* \"contracts/mapping,sol.sol\":72:635  contract map... */\n  mstore(0x40, 0x80)\n    /* \"contracts/mapping,sol.sol\":286:287  0 */\n  0x00\n    /* \"contracts/mapping,sol.sol\":276:287  uint size=0 */\n  0x01\n  sstore\n    /* \"contracts/mapping,sol.sol\":72:635  contract map... */\n  callvalue\n  dup1\n  iszero\n  tag_1\n  jumpi\n  0x00\n  dup1\n  revert\ntag_1:\n  pop\n  dataSize(sub_0)\n  dup1\n  dataOffset(sub_0)\n  0x00\n  codecopy\n  0x00\n  return\nstop\n\nsub_0: assembly {\n        /* \"contracts/mapping,sol.sol\":72:635  contract map... */\n      mstore(0x40, 0x80)\n      callvalue\n      dup1\n      iszero\n      tag_1\n      jumpi\n      0x00\n      dup1\n      revert\n    tag_1:\n      pop\n      jumpi(tag_2, lt(calldatasize, 0x04))\n      shr(0xe0, calldataload(0x00))\n      dup1\n      0x36555b85\n      eq\n      tag_3\n      jumpi\n      dup1\n      0x4ee5c2ee\n      eq\n      tag_4\n      jumpi\n      dup1\n      0x680d405f\n      eq\n      tag_5\n      jumpi\n      dup1\n      0x80599e4b\n      eq\n      tag_6\n      jumpi\n    tag_2:\n      0x00\n      dup1\n      revert\n        /* \"contracts/mapping,sol.sol\":307:422  function add(string memory name,uint amount)external {... */\n    tag_3:\n      tag_7\n      0x04\n      dup1\n      calldatasize\n      sub\n      dup2\n      add\n      swap1\n      tag_8\n      swap2\n      swap1\n      tag_9\n      jump\t// in\n    tag_8:\n      tag_10\n      jump\t// in\n    tag_7:\n      stop\n        /* \"contracts/mapping,sol.sol\":426:513  function update(string memory name,uint newvalue)external ... */\n    tag_4:\n      tag_11\n      0x04\n      dup1\n      calldatasize\n      sub\n      dup2\n      add\n      swap1\n      tag_12\n      swap2\n      swap1\n      tag_9\n      jump\t// in\n    tag_12:\n      tag_13\n      jump\t// in\n    tag_11:\n      stop\n        /* \"contracts/mapping,sol.sol\":243:273  mapping(string=>uint) public m */\n    tag_5:\n      tag_14\n      0x04\n      dup1\n      calldatasize\n      sub\n      dup2\n      add\n      swap1\n      tag_15\n      swap2\n      swap1\n      tag_16\n      jump\t// in\n    tag_15:\n      tag_17\n      jump\t// in\n    tag_14:\n      mload(0x40)\n      tag_18\n      swap2\n      swap1\n      tag_19\n      jump\t// in\n    tag_18:\n      mload(0x40)\n      dup1\n      swap2\n      sub\n      swap1\n      return\n        /* \"contracts/mapping,sol.sol\":515:626  function remove(string memory name)external ... */\n    tag_6:\n      tag_20\n      0x04\n      dup1\n      calldatasize\n      sub\n      dup2\n      add\n      swap1\n      tag_21\n      swap2\n      swap1\n      tag_16\n      jump\t// in\n    tag_21:\n      tag_22\n      jump\t// in\n    tag_20:\n      stop\n        /* \"contracts/mapping,sol.sol\":307:422  function add(string memory name,uint amount)external {... */\n    tag_10:\n        /* \"contracts/mapping,sol.sol\":377:383  amount */\n      dup1\n        /* \"contracts/mapping,sol.sol\":369:370  m */\n      0x00\n        /* \"contracts/mapping,sol.sol\":371:375  name */\n      dup4\n        /* \"contracts/mapping,sol.sol\":369:376  m[name] */\n      mload(0x40)\n      tag_24\n      swap2\n      swap1\n      tag_25\n      jump\t// in\n    tag_24:\n      swap1\n      dup2\n      mstore\n      0x20\n      add\n      mload(0x40)\n      dup1\n      swap2\n      sub\n      swap1\n      keccak256\n        /* \"contracts/mapping,sol.sol\":369:383  m[name]=amount */\n      dup2\n      swap1\n      sstore\n      pop\n        /* \"contracts/mapping,sol.sol\":390:394  keys */\n      0x02\n        /* \"contracts/mapping,sol.sol\":400:404  name */\n      dup3\n        /* \"contracts/mapping,sol.sol\":390:405  keys.push(name) */\n      swap1\n      dup1\n      0x01\n      dup2\n      sload\n      add\n      dup1\n      dup3\n      sstore\n      dup1\n      swap2\n      pop\n      pop\n      0x01\n      swap1\n      sub\n      swap1\n      0x00\n      mstore\n      keccak256(0x00, 0x20)\n      add\n      0x00\n      swap1\n      swap2\n      swap1\n      swap2\n      swap1\n      swap2\n      pop\n      swap1\n      dup2\n      tag_27\n      swap2\n      swap1\n      tag_28\n      jump\t// in\n    tag_27:\n      pop\n        /* \"contracts/mapping,sol.sol\":412:416  size */\n      0x01\n      0x00\n        /* \"contracts/mapping,sol.sol\":412:418  size++ */\n      dup2\n      sload\n      dup1\n      swap3\n      swap2\n      swap1\n      tag_29\n      swap1\n      tag_30\n      jump\t// in\n    tag_29:\n      swap2\n      swap1\n      pop\n      sstore\n      pop\n        /* \"contracts/mapping,sol.sol\":307:422  function add(string memory name,uint amount)external {... */\n      pop\n      pop\n      jump\t// out\n        /* \"contracts/mapping,sol.sol\":426:513  function update(string memory name,uint newvalue)external ... */\n    tag_13:\n        /* \"contracts/mapping,sol.sol\":501:509  newvalue */\n      dup1\n        /* \"contracts/mapping,sol.sol\":493:494  m */\n      0x00\n        /* \"contracts/mapping,sol.sol\":495:499  name */\n      dup4\n        /* \"contracts/mapping,sol.sol\":493:500  m[name] */\n      mload(0x40)\n      tag_32\n      swap2\n      swap1\n      tag_25\n      jump\t// in\n    tag_32:\n      swap1\n      dup2\n      mstore\n      0x20\n      add\n      mload(0x40)\n      dup1\n      swap2\n      sub\n      swap1\n      keccak256\n        /* \"contracts/mapping,sol.sol\":493:509  m[name]=newvalue */\n      dup2\n      swap1\n      sstore\n      pop\n        /* \"contracts/mapping,sol.sol\":426:513  function update(string memory name,uint newvalue)external ... */\n      pop\n      pop\n      jump\t// out\n        /* \"contracts/mapping,sol.sol\":243:273  mapping(string=>uint) public m */\n    tag_17:\n      0x00\n      dup2\n      dup1\n      mload\n      0x20\n      dup2\n      add\n      dup3\n      add\n      dup1\n      mload\n      dup5\n      dup3\n      mstore\n      0x20\n      dup4\n      add\n      0x20\n      dup6\n      add\n      keccak256\n      dup2\n      dup4\n      mstore\n      dup1\n      swap6\n      pop\n      pop\n      pop\n      pop\n      pop\n      pop\n      0x00\n      swap2\n      pop\n      swap1\n      pop\n      sload\n      dup2\n      jump\t// out\n        /* \"contracts/mapping,sol.sol\":515:626  function remove(string memory name)external ... */\n    tag_22:\n        /* \"contracts/mapping,sol.sol\":575:576  m */\n      0x00\n        /* \"contracts/mapping,sol.sol\":577:581  name */\n      dup2\n        /* \"contracts/mapping,sol.sol\":575:582  m[name] */\n      mload(0x40)\n      tag_34\n      swap2\n      swap1\n      tag_25\n      jump\t// in\n    tag_34:\n      swap1\n      dup2\n      mstore\n      0x20\n      add\n      mload(0x40)\n      dup1\n      swap2\n      sub\n      swap1\n      keccak256\n        /* \"contracts/mapping,sol.sol\":568:582  delete m[name] */\n      0x00\n      swap1\n      sstore\n        /* \"contracts/mapping,sol.sol\":616:620  size */\n      0x01\n      0x00\n        /* \"contracts/mapping,sol.sol\":616:622  size-- */\n      dup2\n      sload\n      dup1\n      swap3\n      swap2\n      swap1\n      tag_35\n      swap1\n      tag_36\n      jump\t// in\n    tag_35:\n      swap2\n      swap1\n      pop\n      sstore\n      pop\n        /* \"contracts/mapping,sol.sol\":515:626  function remove(string memory name)external ... */\n      pop\n      jump\t// out\n        /* \"#utility.yul\":7:82   */\n    tag_37:\n        /* \"#utility.yul\":40:46   */\n      0x00\n        /* \"#utility.yul\":73:75   */\n      0x40\n        /* \"#utility.yul\":67:76   */\n      mload\n        /* \"#utility.yul\":57:76   */\n      swap1\n      pop\n        /* \"#utility.yul\":7:82   */\n      swap1\n      jump\t// out\n        /* \"#utility.yul\":88:205   */\n    tag_38:\n        /* \"#utility.yul\":197:198   */\n      0x00\n        /* \"#utility.yul\":194:195   */\n      dup1\n        /* \"#utility.yul\":187:199   */\n      revert\n        /* \"#utility.yul\":211:328   */\n    tag_39:\n        /* \"#utility.yul\":320:321   */\n      0x00\n        /* \"#utility.yul\":317:318   */\n      dup1\n        /* \"#utility.yul\":310:322   */\n      revert\n        /* \"#utility.yul\":334:451   */\n    tag_40:\n        /* \"#utility.yul\":443:444   */\n      0x00\n        /* \"#utility.yul\":440:441   */\n      dup1\n        /* \"#utility.yul\":433:445   */\n      revert\n        /* \"#utility.yul\":457:574   */\n    tag_41:\n        /* \"#utility.yul\":566:567   */\n      0x00\n        /* \"#utility.yul\":563:564   */\n      dup1\n        /* \"#utility.yul\":556:568   */\n      revert\n        /* \"#utility.yul\":580:682   */\n    tag_42:\n        /* \"#utility.yul\":621:627   */\n      0x00\n        /* \"#utility.yul\":672:674   */\n      0x1f\n        /* \"#utility.yul\":668:675   */\n      not\n        /* \"#utility.yul\":663:665   */\n      0x1f\n        /* \"#utility.yul\":656:661   */\n      dup4\n        /* \"#utility.yul\":652:666   */\n      add\n        /* \"#utility.yul\":648:676   */\n      and\n        /* \"#utility.yul\":638:676   */\n      swap1\n      pop\n        /* \"#utility.yul\":580:682   */\n      swap2\n      swap1\n      pop\n      jump\t// out\n        /* \"#utility.yul\":688:868   */\n    tag_43:\n        /* \"#utility.yul\":736:813   */\n      0x4e487b7100000000000000000000000000000000000000000000000000000000\n        /* \"#utility.yul\":733:734   */\n      0x00\n        /* \"#utility.yul\":726:814   */\n      mstore\n        /* \"#utility.yul\":833:837   */\n      0x41\n        /* \"#utility.yul\":830:831   */\n      0x04\n        /* \"#utility.yul\":823:838   */\n      mstore\n        /* \"#utility.yul\":857:861   */\n      0x24\n        /* \"#utility.yul\":854:855   */\n      0x00\n        /* \"#utility.yul\":847:862   */\n      revert\n        /* \"#utility.yul\":874:1155   */\n    tag_44:\n        /* \"#utility.yul\":957:984   */\n      tag_85\n        /* \"#utility.yul\":979:983   */\n      dup3\n        /* \"#utility.yul\":957:984   */\n      tag_42\n      jump\t// in\n    tag_85:\n        /* \"#utility.yul\":949:955   */\n      dup2\n        /* \"#utility.yul\":945:985   */\n      add\n        /* \"#utility.yul\":1087:1093   */\n      dup2\n        /* \"#utility.yul\":1075:1085   */\n      dup2\n        /* \"#utility.yul\":1072:1094   */\n      lt\n        /* \"#utility.yul\":1051:1069   */\n      0xffffffffffffffff\n        /* \"#utility.yul\":1039:1049   */\n      dup3\n        /* \"#utility.yul\":1036:1070   */\n      gt\n        /* \"#utility.yul\":1033:1095   */\n      or\n        /* \"#utility.yul\":1030:1118   */\n      iszero\n      tag_86\n      jumpi\n        /* \"#utility.yul\":1098:1116   */\n      tag_87\n      tag_43\n      jump\t// in\n    tag_87:\n        /* \"#utility.yul\":1030:1118   */\n    tag_86:\n        /* \"#utility.yul\":1138:1148   */\n      dup1\n        /* \"#utility.yul\":1134:1136   */\n      0x40\n        /* \"#utility.yul\":1127:1149   */\n      mstore\n        /* \"#utility.yul\":917:1155   */\n      pop\n        /* \"#utility.yul\":874:1155   */\n      pop\n      pop\n      jump\t// out\n        /* \"#utility.yul\":1161:1290   */\n    tag_45:\n        /* \"#utility.yul\":1195:1201   */\n      0x00\n        /* \"#utility.yul\":1222:1242   */\n      tag_89\n      tag_37\n      jump\t// in\n    tag_89:\n        /* \"#utility.yul\":1212:1242   */\n      swap1\n      pop\n        /* \"#utility.yul\":1251:1284   */\n      tag_90\n        /* \"#utility.yul\":1279:1283   */\n      dup3\n        /* \"#utility.yul\":1271:1277   */\n      dup3\n        /* \"#utility.yul\":1251:1284   */\n      tag_44\n      jump\t// in\n    tag_90:\n        /* \"#utility.yul\":1161:1290   */\n      swap2\n      swap1\n      pop\n      jump\t// out\n        /* \"#utility.yul\":1296:1604   */\n    tag_46:\n        /* \"#utility.yul\":1358:1362   */\n      0x00\n        /* \"#utility.yul\":1448:1466   */\n      0xffffffffffffffff\n        /* \"#utility.yul\":1440:1446   */\n      dup3\n        /* \"#utility.yul\":1437:1467   */\n      gt\n        /* \"#utility.yul\":1434:1490   */\n      iszero\n      tag_92\n      jumpi\n        /* \"#utility.yul\":1470:1488   */\n      tag_93\n      tag_43\n      jump\t// in\n    tag_93:\n        /* \"#utility.yul\":1434:1490   */\n    tag_92:\n        /* \"#utility.yul\":1508:1537   */\n      tag_94\n        /* \"#utility.yul\":1530:1536   */\n      dup3\n        /* \"#utility.yul\":1508:1537   */\n      tag_42\n      jump\t// in\n    tag_94:\n        /* \"#utility.yul\":1500:1537   */\n      swap1\n      pop\n        /* \"#utility.yul\":1592:1596   */\n      0x20\n        /* \"#utility.yul\":1586:1590   */\n      dup2\n        /* \"#utility.yul\":1582:1597   */\n      add\n        /* \"#utility.yul\":1574:1597   */\n      swap1\n      pop\n        /* \"#utility.yul\":1296:1604   */\n      swap2\n      swap1\n      pop\n      jump\t// out\n        /* \"#utility.yul\":1610:1758   */\n    tag_47:\n        /* \"#utility.yul\":1708:1714   */\n      dup3\n        /* \"#utility.yul\":1703:1706   */\n      dup2\n        /* \"#utility.yul\":1698:1701   */\n      dup4\n        /* \"#utility.yul\":1685:1715   */\n      calldatacopy\n        /* \"#utility.yul\":1749:1750   */\n      0x00\n        /* \"#utility.yul\":1740:1746   */\n      dup4\n        /* \"#utility.yul\":1735:1738   */\n      dup4\n        /* \"#utility.yul\":1731:1747   */\n      add\n        /* \"#utility.yul\":1724:1751   */\n      mstore\n        /* \"#utility.yul\":1610:1758   */\n      pop\n      pop\n      pop\n      jump\t// out\n        /* \"#utility.yul\":1764:2189   */\n    tag_48:\n        /* \"#utility.yul\":1842:1847   */\n      0x00\n        /* \"#utility.yul\":1867:1933   */\n      tag_97\n        /* \"#utility.yul\":1883:1932   */\n      tag_98\n        /* \"#utility.yul\":1925:1931   */\n      dup5\n        /* \"#utility.yul\":1883:1932   */\n      tag_46\n      jump\t// in\n    tag_98:\n        /* \"#utility.yul\":1867:1933   */\n      tag_45\n      jump\t// in\n    tag_97:\n        /* \"#utility.yul\":1858:1933   */\n      swap1\n      pop\n        /* \"#utility.yul\":1956:1962   */\n      dup3\n        /* \"#utility.yul\":1949:1954   */\n      dup2\n        /* \"#utility.yul\":1942:1963   */\n      mstore\n        /* \"#utility.yul\":1994:1998   */\n      0x20\n        /* \"#utility.yul\":1987:1992   */\n      dup2\n        /* \"#utility.yul\":1983:1999   */\n      add\n        /* \"#utility.yul\":2032:2035   */\n      dup5\n        /* \"#utility.yul\":2023:2029   */\n      dup5\n        /* \"#utility.yul\":2018:2021   */\n      dup5\n        /* \"#utility.yul\":2014:2030   */\n      add\n        /* \"#utility.yul\":2011:2036   */\n      gt\n        /* \"#utility.yul\":2008:2120   */\n      iszero\n      tag_99\n      jumpi\n        /* \"#utility.yul\":2039:2118   */\n      tag_100\n      tag_41\n      jump\t// in\n    tag_100:\n        /* \"#utility.yul\":2008:2120   */\n    tag_99:\n        /* \"#utility.yul\":2129:2183   */\n      tag_101\n        /* \"#utility.yul\":2176:2182   */\n      dup5\n        /* \"#utility.yul\":2171:2174   */\n      dup3\n        /* \"#utility.yul\":2166:2169   */\n      dup6\n        /* \"#utility.yul\":2129:2183   */\n      tag_47\n      jump\t// in\n    tag_101:\n        /* \"#utility.yul\":1848:2189   */\n      pop\n        /* \"#utility.yul\":1764:2189   */\n      swap4\n      swap3\n      pop\n      pop\n      pop\n      jump\t// out\n        /* \"#utility.yul\":2209:2549   */\n    tag_49:\n        /* \"#utility.yul\":2265:2270   */\n      0x00\n        /* \"#utility.yul\":2314:2317   */\n      dup3\n        /* \"#utility.yul\":2307:2311   */\n      0x1f\n        /* \"#utility.yul\":2299:2305   */\n      dup4\n        /* \"#utility.yul\":2295:2312   */\n      add\n        /* \"#utility.yul\":2291:2318   */\n      slt\n        /* \"#utility.yul\":2281:2403   */\n      tag_103\n      jumpi\n        /* \"#utility.yul\":2322:2401   */\n      tag_104\n      tag_40\n      jump\t// in\n    tag_104:\n        /* \"#utility.yul\":2281:2403   */\n    tag_103:\n        /* \"#utility.yul\":2439:2445   */\n      dup2\n        /* \"#utility.yul\":2426:2446   */\n      calldataload\n        /* \"#utility.yul\":2464:2543   */\n      tag_105\n        /* \"#utility.yul\":2539:2542   */\n      dup5\n        /* \"#utility.yul\":2531:2537   */\n      dup3\n        /* \"#utility.yul\":2524:2528   */\n      0x20\n        /* \"#utility.yul\":2516:2522   */\n      dup7\n        /* \"#utility.yul\":2512:2529   */\n      add\n        /* \"#utility.yul\":2464:2543   */\n      tag_48\n      jump\t// in\n    tag_105:\n        /* \"#utility.yul\":2455:2543   */\n      swap2\n      pop\n        /* \"#utility.yul\":2271:2549   */\n      pop\n        /* \"#utility.yul\":2209:2549   */\n      swap3\n      swap2\n      pop\n      pop\n      jump\t// out\n        /* \"#utility.yul\":2555:2632   */\n    tag_50:\n        /* \"#utility.yul\":2592:2599   */\n      0x00\n        /* \"#utility.yul\":2621:2626   */\n      dup2\n        /* \"#utility.yul\":2610:2626   */\n      swap1\n      pop\n        /* \"#utility.yul\":2555:2632   */\n      swap2\n      swap1\n      pop\n      jump\t// out\n        /* \"#utility.yul\":2638:2760   */\n    tag_51:\n        /* \"#utility.yul\":2711:2735   */\n      tag_108\n        /* \"#utility.yul\":2729:2734   */\n      dup2\n        /* \"#utility.yul\":2711:2735   */\n      tag_50\n      jump\t// in\n    tag_108:\n        /* \"#utility.yul\":2704:2709   */\n      dup2\n        /* \"#utility.yul\":2701:2736   */\n      eq\n        /* \"#utility.yul\":2691:2754   */\n      tag_109\n      jumpi\n        /* \"#utility.yul\":2750:2751   */\n      0x00\n        /* \"#utility.yul\":2747:2748   */\n      dup1\n        /* \"#utility.yul\":2740:2752   */\n      revert\n        /* \"#utility.yul\":2691:2754   */\n    tag_109:\n        /* \"#utility.yul\":2638:2760   */\n      pop\n      jump\t// out\n        /* \"#utility.yul\":2766:2905   */\n    tag_52:\n        /* \"#utility.yul\":2812:2817   */\n      0x00\n        /* \"#utility.yul\":2850:2856   */\n      dup2\n        /* \"#utility.yul\":2837:2857   */\n      calldataload\n        /* \"#utility.yul\":2828:2857   */\n      swap1\n      pop\n        /* \"#utility.yul\":2866:2899   */\n      tag_111\n        /* \"#utility.yul\":2893:2898   */\n      dup2\n        /* \"#utility.yul\":2866:2899   */\n      tag_51\n      jump\t// in\n    tag_111:\n        /* \"#utility.yul\":2766:2905   */\n      swap3\n      swap2\n      pop\n      pop\n      jump\t// out\n        /* \"#utility.yul\":2911:3565   */\n    tag_9:\n        /* \"#utility.yul\":2989:2995   */\n      0x00\n        /* \"#utility.yul\":2997:3003   */\n      dup1\n        /* \"#utility.yul\":3046:3048   */\n      0x40\n        /* \"#utility.yul\":3034:3043   */\n      dup4\n        /* \"#utility.yul\":3025:3032   */\n      dup6\n        /* \"#utility.yul\":3021:3044   */\n      sub\n        /* \"#utility.yul\":3017:3049   */\n      slt\n        /* \"#utility.yul\":3014:3133   */\n      iszero\n      tag_113\n      jumpi\n        /* \"#utility.yul\":3052:3131   */\n      tag_114\n      tag_38\n      jump\t// in\n    tag_114:\n        /* \"#utility.yul\":3014:3133   */\n    tag_113:\n        /* \"#utility.yul\":3200:3201   */\n      0x00\n        /* \"#utility.yul\":3189:3198   */\n      dup4\n        /* \"#utility.yul\":3185:3202   */\n      add\n        /* \"#utility.yul\":3172:3203   */\n      calldataload\n        /* \"#utility.yul\":3230:3248   */\n      0xffffffffffffffff\n        /* \"#utility.yul\":3222:3228   */\n      dup2\n        /* \"#utility.yul\":3219:3249   */\n      gt\n        /* \"#utility.yul\":3216:3333   */\n      iszero\n      tag_115\n      jumpi\n        /* \"#utility.yul\":3252:3331   */\n      tag_116\n      tag_39\n      jump\t// in\n    tag_116:\n        /* \"#utility.yul\":3216:3333   */\n    tag_115:\n        /* \"#utility.yul\":3357:3420   */\n      tag_117\n        /* \"#utility.yul\":3412:3419   */\n      dup6\n        /* \"#utility.yul\":3403:3409   */\n      dup3\n        /* \"#utility.yul\":3392:3401   */\n      dup7\n        /* \"#utility.yul\":3388:3410   */\n      add\n        /* \"#utility.yul\":3357:3420   */\n      tag_49\n      jump\t// in\n    tag_117:\n        /* \"#utility.yul\":3347:3420   */\n      swap3\n      pop\n        /* \"#utility.yul\":3143:3430   */\n      pop\n        /* \"#utility.yul\":3469:3471   */\n      0x20\n        /* \"#utility.yul\":3495:3548   */\n      tag_118\n        /* \"#utility.yul\":3540:3547   */\n      dup6\n        /* \"#utility.yul\":3531:3537   */\n      dup3\n        /* \"#utility.yul\":3520:3529   */\n      dup7\n        /* \"#utility.yul\":3516:3538   */\n      add\n        /* \"#utility.yul\":3495:3548   */\n      tag_52\n      jump\t// in\n    tag_118:\n        /* \"#utility.yul\":3485:3548   */\n      swap2\n      pop\n        /* \"#utility.yul\":3440:3558   */\n      pop\n        /* \"#utility.yul\":2911:3565   */\n      swap3\n      pop\n      swap3\n      swap1\n      pop\n      jump\t// out\n        /* \"#utility.yul\":3571:4080   */\n    tag_16:\n        /* \"#utility.yul\":3640:3646   */\n      0x00\n        /* \"#utility.yul\":3689:3691   */\n      0x20\n        /* \"#utility.yul\":3677:3686   */\n      dup3\n        /* \"#utility.yul\":3668:3675   */\n      dup5\n        /* \"#utility.yul\":3664:3687   */\n      sub\n        /* \"#utility.yul\":3660:3692   */\n      slt\n        /* \"#utility.yul\":3657:3776   */\n      iszero\n      tag_120\n      jumpi\n        /* \"#utility.yul\":3695:3774   */\n      tag_121\n      tag_38\n      jump\t// in\n    tag_121:\n        /* \"#utility.yul\":3657:3776   */\n    tag_120:\n        /* \"#utility.yul\":3843:3844   */\n      0x00\n        /* \"#utility.yul\":3832:3841   */\n      dup3\n        /* \"#utility.yul\":3828:3845   */\n      add\n        /* \"#utility.yul\":3815:3846   */\n      calldataload\n        /* \"#utility.yul\":3873:3891   */\n      0xffffffffffffffff\n        /* \"#utility.yul\":3865:3871   */\n      dup2\n        /* \"#utility.yul\":3862:3892   */\n      gt\n        /* \"#utility.yul\":3859:3976   */\n      iszero\n      tag_122\n      jumpi\n        /* \"#utility.yul\":3895:3974   */\n      tag_123\n      tag_39\n      jump\t// in\n    tag_123:\n        /* \"#utility.yul\":3859:3976   */\n    tag_122:\n        /* \"#utility.yul\":4000:4063   */\n      tag_124\n        /* \"#utility.yul\":4055:4062   */\n      dup5\n        /* \"#utility.yul\":4046:4052   */\n      dup3\n        /* \"#utility.yul\":4035:4044   */\n      dup6\n        /* \"#utility.yul\":4031:4053   */\n      add\n        /* \"#utility.yul\":4000:4063   */\n      tag_49\n      jump\t// in\n    tag_124:\n        /* \"#utility.yul\":3990:4063   */\n      swap2\n      pop\n        /* \"#utility.yul\":3786:4073   */\n      pop\n        /* \"#utility.yul\":3571:4080   */\n      swap3\n      swap2\n      pop\n      pop\n      jump\t// out\n        /* \"#utility.yul\":4086:4204   */\n    tag_53:\n        /* \"#utility.yul\":4173:4197   */\n      tag_126\n        /* \"#utility.yul\":4191:4196   */\n      dup2\n        /* \"#utility.yul\":4173:4197   */\n      tag_50\n      jump\t// in\n    tag_126:\n        /* \"#utility.yul\":4168:4171   */\n      dup3\n        /* \"#utility.yul\":4161:4198   */\n      mstore\n        /* \"#utility.yul\":4086:4204   */\n      pop\n      pop\n      jump\t// out\n        /* \"#utility.yul\":4210:4432   */\n    tag_19:\n        /* \"#utility.yul\":4303:4307   */\n      0x00\n        /* \"#utility.yul\":4341:4343   */\n      0x20\n        /* \"#utility.yul\":4330:4339   */\n      dup3\n        /* \"#utility.yul\":4326:4344   */\n      add\n        /* \"#utility.yul\":4318:4344   */\n      swap1\n      pop\n        /* \"#utility.yul\":4354:4425   */\n      tag_128\n        /* \"#utility.yul\":4422:4423   */\n      0x00\n        /* \"#utility.yul\":4411:4420   */\n      dup4\n        /* \"#utility.yul\":4407:4424   */\n      add\n        /* \"#utility.yul\":4398:4404   */\n      dup5\n        /* \"#utility.yul\":4354:4425   */\n      tag_53\n      jump\t// in\n    tag_128:\n        /* \"#utility.yul\":4210:4432   */\n      swap3\n      swap2\n      pop\n      pop\n      jump\t// out\n        /* \"#utility.yul\":4438:4537   */\n    tag_54:\n        /* \"#utility.yul\":4490:4496   */\n      0x00\n        /* \"#utility.yul\":4524:4529   */\n      dup2\n        /* \"#utility.yul\":4518:4530   */\n      mload\n        /* \"#utility.yul\":4508:4530   */\n      swap1\n      pop\n        /* \"#utility.yul\":4438:4537   */\n      swap2\n      swap1\n      pop\n      jump\t// out\n        /* \"#utility.yul\":4543:4691   */\n    tag_55:\n        /* \"#utility.yul\":4645:4656   */\n      0x00\n        /* \"#utility.yul\":4682:4685   */\n      dup2\n        /* \"#utility.yul\":4667:4685   */\n      swap1\n      pop\n        /* \"#utility.yul\":4543:4691   */\n      swap3\n      swap2\n      pop\n      pop\n      jump\t// out\n        /* \"#utility.yul\":4697:4836   */\n    tag_56:\n        /* \"#utility.yul\":4786:4792   */\n      dup3\n        /* \"#utility.yul\":4781:4784   */\n      dup2\n        /* \"#utility.yul\":4776:4779   */\n      dup4\n        /* \"#utility.yul\":4770:4793   */\n      mcopy\n        /* \"#utility.yul\":4827:4828   */\n      0x00\n        /* \"#utility.yul\":4818:4824   */\n      dup4\n        /* \"#utility.yul\":4813:4816   */\n      dup4\n        /* \"#utility.yul\":4809:4825   */\n      add\n        /* \"#utility.yul\":4802:4829   */\n      mstore\n        /* \"#utility.yul\":4697:4836   */\n      pop\n      pop\n      pop\n      jump\t// out\n        /* \"#utility.yul\":4842:5232   */\n    tag_57:\n        /* \"#utility.yul\":4948:4951   */\n      0x00\n        /* \"#utility.yul\":4976:5015   */\n      tag_133\n        /* \"#utility.yul\":5009:5014   */\n      dup3\n        /* \"#utility.yul\":4976:5015   */\n      tag_54\n      jump\t// in\n    tag_133:\n        /* \"#utility.yul\":5031:5120   */\n      tag_134\n        /* \"#utility.yul\":5113:5119   */\n      dup2\n        /* \"#utility.yul\":5108:5111   */\n      dup6\n        /* \"#utility.yul\":5031:5120   */\n      tag_55\n      jump\t// in\n    tag_134:\n        /* \"#utility.yul\":5024:5120   */\n      swap4\n      pop\n        /* \"#utility.yul\":5129:5194   */\n      tag_135\n        /* \"#utility.yul\":5187:5193   */\n      dup2\n        /* \"#utility.yul\":5182:5185   */\n      dup6\n        /* \"#utility.yul\":5175:5179   */\n      0x20\n        /* \"#utility.yul\":5168:5173   */\n      dup7\n        /* \"#utility.yul\":5164:5180   */\n      add\n        /* \"#utility.yul\":5129:5194   */\n      tag_56\n      jump\t// in\n    tag_135:\n        /* \"#utility.yul\":5219:5225   */\n      dup1\n        /* \"#utility.yul\":5214:5217   */\n      dup5\n        /* \"#utility.yul\":5210:5226   */\n      add\n        /* \"#utility.yul\":5203:5226   */\n      swap2\n      pop\n        /* \"#utility.yul\":4952:5232   */\n      pop\n        /* \"#utility.yul\":4842:5232   */\n      swap3\n      swap2\n      pop\n      pop\n      jump\t// out\n        /* \"#utility.yul\":5238:5513   */\n    tag_25:\n        /* \"#utility.yul\":5370:5373   */\n      0x00\n        /* \"#utility.yul\":5392:5487   */\n      tag_137\n        /* \"#utility.yul\":5483:5486   */\n      dup3\n        /* \"#utility.yul\":5474:5480   */\n      dup5\n        /* \"#utility.yul\":5392:5487   */\n      tag_57\n      jump\t// in\n    tag_137:\n        /* \"#utility.yul\":5385:5487   */\n      swap2\n      pop\n        /* \"#utility.yul\":5504:5507   */\n      dup2\n        /* \"#utility.yul\":5497:5507   */\n      swap1\n      pop\n        /* \"#utility.yul\":5238:5513   */\n      swap3\n      swap2\n      pop\n      pop\n      jump\t// out\n        /* \"#utility.yul\":5519:5699   */\n    tag_58:\n        /* \"#utility.yul\":5567:5644   */\n      0x4e487b7100000000000000000000000000000000000000000000000000000000\n        /* \"#utility.yul\":5564:5565   */\n      0x00\n        /* \"#utility.yul\":5557:5645   */\n      mstore\n        /* \"#utility.yul\":5664:5668   */\n      0x22\n        /* \"#utility.yul\":5661:5662   */\n      0x04\n        /* \"#utility.yul\":5654:5669   */\n      mstore\n        /* \"#utility.yul\":5688:5692   */\n      0x24\n        /* \"#utility.yul\":5685:5686   */\n      0x00\n        /* \"#utility.yul\":5678:5693   */\n      revert\n        /* \"#utility.yul\":5705:6025   */\n    tag_59:\n        /* \"#utility.yul\":5749:5755   */\n      0x00\n        /* \"#utility.yul\":5786:5787   */\n      0x02\n        /* \"#utility.yul\":5780:5784   */\n      dup3\n        /* \"#utility.yul\":5776:5788   */\n      div\n        /* \"#utility.yul\":5766:5788   */\n      swap1\n      pop\n        /* \"#utility.yul\":5833:5834   */\n      0x01\n        /* \"#utility.yul\":5827:5831   */\n      dup3\n        /* \"#utility.yul\":5823:5835   */\n      and\n        /* \"#utility.yul\":5854:5872   */\n      dup1\n        /* \"#utility.yul\":5844:5925   */\n      tag_140\n      jumpi\n        /* \"#utility.yul\":5910:5914   */\n      0x7f\n        /* \"#utility.yul\":5902:5908   */\n      dup3\n        /* \"#utility.yul\":5898:5915   */\n      and\n        /* \"#utility.yul\":5888:5915   */\n      swap2\n      pop\n        /* \"#utility.yul\":5844:5925   */\n    tag_140:\n        /* \"#utility.yul\":5972:5974   */\n      0x20\n        /* \"#utility.yul\":5964:5970   */\n      dup3\n        /* \"#utility.yul\":5961:5975   */\n      lt\n        /* \"#utility.yul\":5941:5959   */\n      dup2\n        /* \"#utility.yul\":5938:5976   */\n      sub\n        /* \"#utility.yul\":5935:6019   */\n      tag_141\n      jumpi\n        /* \"#utility.yul\":5991:6009   */\n      tag_142\n      tag_58\n      jump\t// in\n    tag_142:\n        /* \"#utility.yul\":5935:6019   */\n    tag_141:\n        /* \"#utility.yul\":5756:6025   */\n      pop\n        /* \"#utility.yul\":5705:6025   */\n      swap2\n      swap1\n      pop\n      jump\t// out\n        /* \"#utility.yul\":6031:6172   */\n    tag_60:\n        /* \"#utility.yul\":6080:6084   */\n      0x00\n        /* \"#utility.yul\":6103:6106   */\n      dup2\n        /* \"#utility.yul\":6095:6106   */\n      swap1\n      pop\n        /* \"#utility.yul\":6126:6129   */\n      dup2\n        /* \"#utility.yul\":6123:6124   */\n      0x00\n        /* \"#utility.yul\":6116:6130   */\n      mstore\n        /* \"#utility.yul\":6160:6164   */\n      0x20\n        /* \"#utility.yul\":6157:6158   */\n      0x00\n        /* \"#utility.yul\":6147:6165   */\n      keccak256\n        /* \"#utility.yul\":6139:6165   */\n      swap1\n      pop\n        /* \"#utility.yul\":6031:6172   */\n      swap2\n      swap1\n      pop\n      jump\t// out\n        /* \"#utility.yul\":6178:6271   */\n    tag_61:\n        /* \"#utility.yul\":6215:6221   */\n      0x00\n        /* \"#utility.yul\":6262:6264   */\n      0x20\n        /* \"#utility.yul\":6257:6259   */\n      0x1f\n        /* \"#utility.yul\":6250:6255   */\n      dup4\n        /* \"#utility.yul\":6246:6260   */\n      add\n        /* \"#utility.yul\":6242:6265   */\n      div\n        /* \"#utility.yul\":6232:6265   */\n      swap1\n      pop\n        /* \"#utility.yul\":6178:6271   */\n      swap2\n      swap1\n      pop\n      jump\t// out\n        /* \"#utility.yul\":6277:6384   */\n    tag_62:\n        /* \"#utility.yul\":6321:6329   */\n      0x00\n        /* \"#utility.yul\":6371:6376   */\n      dup3\n        /* \"#utility.yul\":6365:6369   */\n      dup3\n        /* \"#utility.yul\":6361:6377   */\n      shl\n        /* \"#utility.yul\":6340:6377   */\n      swap1\n      pop\n        /* \"#utility.yul\":6277:6384   */\n      swap3\n      swap2\n      pop\n      pop\n      jump\t// out\n        /* \"#utility.yul\":6390:6783   */\n    tag_63:\n        /* \"#utility.yul\":6459:6465   */\n      0x00\n        /* \"#utility.yul\":6509:6510   */\n      0x08\n        /* \"#utility.yul\":6497:6507   */\n      dup4\n        /* \"#utility.yul\":6493:6511   */\n      mul\n        /* \"#utility.yul\":6532:6629   */\n      tag_147\n        /* \"#utility.yul\":6562:6628   */\n      0xffffffffffffffffffffffffffffffffffffffffffffffffffffffffffffffff\n        /* \"#utility.yul\":6551:6560   */\n      dup3\n        /* \"#utility.yul\":6532:6629   */\n      tag_62\n      jump\t// in\n    tag_147:\n        /* \"#utility.yul\":6650:6689   */\n      tag_148\n        /* \"#utility.yul\":6680:6688   */\n      dup7\n        /* \"#utility.yul\":6669:6678   */\n      dup4\n        /* \"#utility.yul\":6650:6689   */\n      tag_62\n      jump\t// in\n    tag_148:\n        /* \"#utility.yul\":6638:6689   */\n      swap6\n      pop\n        /* \"#utility.yul\":6722:6726   */\n      dup1\n        /* \"#utility.yul\":6718:6727   */\n      not\n        /* \"#utility.yul\":6711:6716   */\n      dup5\n        /* \"#utility.yul\":6707:6728   */\n      and\n        /* \"#utility.yul\":6698:6728   */\n      swap4\n      pop\n        /* \"#utility.yul\":6771:6775   */\n      dup1\n        /* \"#utility.yul\":6761:6769   */\n      dup7\n        /* \"#utility.yul\":6757:6776   */\n      and\n        /* \"#utility.yul\":6750:6755   */\n      dup5\n        /* \"#utility.yul\":6747:6777   */\n      or\n        /* \"#utility.yul\":6737:6777   */\n      swap3\n      pop\n        /* \"#utility.yul\":6466:6783   */\n      pop\n      pop\n        /* \"#utility.yul\":6390:6783   */\n      swap4\n      swap3\n      pop\n      pop\n      pop\n      jump\t// out\n        /* \"#utility.yul\":6789:6849   */\n    tag_64:\n        /* \"#utility.yul\":6817:6820   */\n      0x00\n        /* \"#utility.yul\":6838:6843   */\n      dup2\n        /* \"#utility.yul\":6831:6843   */\n      swap1\n      pop\n        /* \"#utility.yul\":6789:6849   */\n      swap2\n      swap1\n      pop\n      jump\t// out\n        /* \"#utility.yul\":6855:6997   */\n    tag_65:\n        /* \"#utility.yul\":6905:6914   */\n      0x00\n        /* \"#utility.yul\":6938:6991   */\n      tag_151\n        /* \"#utility.yul\":6956:6990   */\n      tag_152\n        /* \"#utility.yul\":6965:6989   */\n      tag_153\n        /* \"#utility.yul\":6983:6988   */\n      dup5\n        /* \"#utility.yul\":6965:6989   */\n      tag_50\n      jump\t// in\n    tag_153:\n        /* \"#utility.yul\":6956:6990   */\n      tag_64\n      jump\t// in\n    tag_152:\n        /* \"#utility.yul\":6938:6991   */\n      tag_50\n      jump\t// in\n    tag_151:\n        /* \"#utility.yul\":6925:6991   */\n      swap1\n      pop\n        /* \"#utility.yul\":6855:6997   */\n      swap2\n      swap1\n      pop\n      jump\t// out\n        /* \"#utility.yul\":7003:7078   */\n    tag_66:\n        /* \"#utility.yul\":7046:7049   */\n      0x00\n        /* \"#utility.yul\":7067:7072   */\n      dup2\n        /* \"#utility.yul\":7060:7072   */\n      swap1\n      pop\n        /* \"#utility.yul\":7003:7078   */\n      swap2\n      swap1\n      pop\n      jump\t// out\n        /* \"#utility.yul\":7084:7353   */\n    tag_67:\n        /* \"#utility.yul\":7194:7233   */\n      tag_156\n        /* \"#utility.yul\":7225:7232   */\n      dup4\n        /* \"#utility.yul\":7194:7233   */\n      tag_65\n      jump\t// in\n    tag_156:\n        /* \"#utility.yul\":7255:7346   */\n      tag_157\n        /* \"#utility.yul\":7304:7345   */\n      tag_158\n        /* \"#utility.yul\":7328:7344   */\n      dup3\n        /* \"#utility.yul\":7304:7345   */\n      tag_66\n      jump\t// in\n    tag_158:\n        /* \"#utility.yul\":7296:7302   */\n      dup5\n        /* \"#utility.yul\":7289:7293   */\n      dup5\n        /* \"#utility.yul\":7283:7294   */\n      sload\n        /* \"#utility.yul\":7255:7346   */\n      tag_63\n      jump\t// in\n    tag_157:\n        /* \"#utility.yul\":7249:7253   */\n      dup3\n        /* \"#utility.yul\":7242:7347   */\n      sstore\n        /* \"#utility.yul\":7160:7353   */\n      pop\n        /* \"#utility.yul\":7084:7353   */\n      pop\n      pop\n      pop\n      jump\t// out\n        /* \"#utility.yul\":7359:7432   */\n    tag_68:\n        /* \"#utility.yul\":7404:7407   */\n      0x00\n        /* \"#utility.yul\":7359:7432   */\n      swap1\n      jump\t// out\n        /* \"#utility.yul\":7438:7627   */\n    tag_69:\n        /* \"#utility.yul\":7515:7547   */\n      tag_161\n      tag_68\n      jump\t// in\n    tag_161:\n        /* \"#utility.yul\":7556:7621   */\n      tag_162\n        /* \"#utility.yul\":7614:7620   */\n      dup2\n        /* \"#utility.yul\":7606:7612   */\n      dup5\n        /* \"#utility.yul\":7600:7604   */\n      dup5\n        /* \"#utility.yul\":7556:7621   */\n      tag_67\n      jump\t// in\n    tag_162:\n        /* \"#utility.yul\":7491:7627   */\n      pop\n        /* \"#utility.yul\":7438:7627   */\n      pop\n      pop\n      jump\t// out\n        /* \"#utility.yul\":7633:7819   */\n    tag_70:\n        /* \"#utility.yul\":7693:7813   */\n    tag_164:\n        /* \"#utility.yul\":7710:7713   */\n      dup2\n        /* \"#utility.yul\":7703:7708   */\n      dup2\n        /* \"#utility.yul\":7700:7714   */\n      lt\n        /* \"#utility.yul\":7693:7813   */\n      iszero\n      tag_166\n      jumpi\n        /* \"#utility.yul\":7764:7803   */\n      tag_167\n        /* \"#utility.yul\":7801:7802   */\n      0x00\n        /* \"#utility.yul\":7794:7799   */\n      dup3\n        /* \"#utility.yul\":7764:7803   */\n      tag_69\n      jump\t// in\n    tag_167:\n        /* \"#utility.yul\":7737:7738   */\n      0x01\n        /* \"#utility.yul\":7730:7735   */\n      dup2\n        /* \"#utility.yul\":7726:7739   */\n      add\n        /* \"#utility.yul\":7717:7739   */\n      swap1\n      pop\n        /* \"#utility.yul\":7693:7813   */\n      jump(tag_164)\n    tag_166:\n        /* \"#utility.yul\":7633:7819   */\n      pop\n      pop\n      jump\t// out\n        /* \"#utility.yul\":7825:8368   */\n    tag_71:\n        /* \"#utility.yul\":7926:7928   */\n      0x1f\n        /* \"#utility.yul\":7921:7924   */\n      dup3\n        /* \"#utility.yul\":7918:7929   */\n      gt\n        /* \"#utility.yul\":7915:8361   */\n      iszero\n      tag_169\n      jumpi\n        /* \"#utility.yul\":7960:7998   */\n      tag_170\n        /* \"#utility.yul\":7992:7997   */\n      dup2\n        /* \"#utility.yul\":7960:7998   */\n      tag_60\n      jump\t// in\n    tag_170:\n        /* \"#utility.yul\":8044:8073   */\n      tag_171\n        /* \"#utility.yul\":8062:8072   */\n      dup5\n        /* \"#utility.yul\":8044:8073   */\n      tag_61\n      jump\t// in\n    tag_171:\n        /* \"#utility.yul\":8034:8042   */\n      dup2\n        /* \"#utility.yul\":8030:8074   */\n      add\n        /* \"#utility.yul\":8227:8229   */\n      0x20\n        /* \"#utility.yul\":8215:8225   */\n      dup6\n        /* \"#utility.yul\":8212:8230   */\n      lt\n        /* \"#utility.yul\":8209:8258   */\n      iszero\n      tag_172\n      jumpi\n        /* \"#utility.yul\":8248:8256   */\n      dup2\n        /* \"#utility.yul\":8233:8256   */\n      swap1\n      pop\n        /* \"#utility.yul\":8209:8258   */\n    tag_172:\n        /* \"#utility.yul\":8271:8351   */\n      tag_173\n        /* \"#utility.yul\":8327:8349   */\n      tag_174\n        /* \"#utility.yul\":8345:8348   */\n      dup6\n        /* \"#utility.yul\":8327:8349   */\n      tag_61\n      jump\t// in\n    tag_174:\n        /* \"#utility.yul\":8317:8325   */\n      dup4\n        /* \"#utility.yul\":8313:8350   */\n      add\n        /* \"#utility.yul\":8300:8311   */\n      dup3\n        /* \"#utility.yul\":8271:8351   */\n      tag_70\n      jump\t// in\n    tag_173:\n        /* \"#utility.yul\":7930:8361   */\n      pop\n      pop\n        /* \"#utility.yul\":7915:8361   */\n    tag_169:\n        /* \"#utility.yul\":7825:8368   */\n      pop\n      pop\n      pop\n      jump\t// out\n        /* \"#utility.yul\":8374:8491   */\n    tag_72:\n        /* \"#utility.yul\":8428:8436   */\n      0x00\n        /* \"#utility.yul\":8478:8483   */\n      dup3\n        /* \"#utility.yul\":8472:8476   */\n      dup3\n        /* \"#utility.yul\":8468:8484   */\n      shr\n        /* \"#utility.yul\":8447:8484   */\n      swap1\n      pop\n        /* \"#utility.yul\":8374:8491   */\n      swap3\n      swap2\n      pop\n      pop\n      jump\t// out\n        /* \"#utility.yul\":8497:8666   */\n    tag_73:\n        /* \"#utility.yul\":8541:8547   */\n      0x00\n        /* \"#utility.yul\":8574:8625   */\n      tag_177\n        /* \"#utility.yul\":8622:8623   */\n      0x00\n        /* \"#utility.yul\":8618:8624   */\n      not\n        /* \"#utility.yul\":8610:8615   */\n      dup5\n        /* \"#utility.yul\":8607:8608   */\n      0x08\n        /* \"#utility.yul\":8603:8616   */\n      mul\n        /* \"#utility.yul\":8574:8625   */\n      tag_72\n      jump\t// in\n    tag_177:\n        /* \"#utility.yul\":8570:8626   */\n      not\n        /* \"#utility.yul\":8655:8659   */\n      dup1\n        /* \"#utility.yul\":8649:8653   */\n      dup4\n        /* \"#utility.yul\":8645:8660   */\n      and\n        /* \"#utility.yul\":8635:8660   */\n      swap2\n      pop\n        /* \"#utility.yul\":8548:8666   */\n      pop\n        /* \"#utility.yul\":8497:8666   */\n      swap3\n      swap2\n      pop\n      pop\n      jump\t// out\n        /* \"#utility.yul\":8671:8966   */\n    tag_74:\n        /* \"#utility.yul\":8747:8751   */\n      0x00\n        /* \"#utility.yul\":8893:8922   */\n      tag_179\n        /* \"#utility.yul\":8918:8921   */\n      dup4\n        /* \"#utility.yul\":8912:8916   */\n      dup4\n        /* \"#utility.yul\":8893:8922   */\n      tag_73\n      jump\t// in\n    tag_179:\n        /* \"#utility.yul\":8885:8922   */\n      swap2\n      pop\n        /* \"#utility.yul\":8955:8958   */\n      dup3\n        /* \"#utility.yul\":8952:8953   */\n      0x02\n        /* \"#utility.yul\":8948:8959   */\n      mul\n        /* \"#utility.yul\":8942:8946   */\n      dup3\n        /* \"#utility.yul\":8939:8960   */\n      or\n        /* \"#utility.yul\":8931:8960   */\n      swap1\n      pop\n        /* \"#utility.yul\":8671:8966   */\n      swap3\n      swap2\n      pop\n      pop\n      jump\t// out\n        /* \"#utility.yul\":8971:10366   */\n    tag_28:\n        /* \"#utility.yul\":9088:9125   */\n      tag_181\n        /* \"#utility.yul\":9121:9124   */\n      dup3\n        /* \"#utility.yul\":9088:9125   */\n      tag_54\n      jump\t// in\n    tag_181:\n        /* \"#utility.yul\":9190:9208   */\n      0xffffffffffffffff\n        /* \"#utility.yul\":9182:9188   */\n      dup2\n        /* \"#utility.yul\":9179:9209   */\n      gt\n        /* \"#utility.yul\":9176:9232   */\n      iszero\n      tag_182\n      jumpi\n        /* \"#utility.yul\":9212:9230   */\n      tag_183\n      tag_43\n      jump\t// in\n    tag_183:\n        /* \"#utility.yul\":9176:9232   */\n    tag_182:\n        /* \"#utility.yul\":9256:9294   */\n      tag_184\n        /* \"#utility.yul\":9288:9292   */\n      dup3\n        /* \"#utility.yul\":9282:9293   */\n      sload\n        /* \"#utility.yul\":9256:9294   */\n      tag_59\n      jump\t// in\n    tag_184:\n        /* \"#utility.yul\":9341:9408   */\n      tag_185\n        /* \"#utility.yul\":9401:9407   */\n      dup3\n        /* \"#utility.yul\":9393:9399   */\n      dup3\n        /* \"#utility.yul\":9387:9391   */\n      dup6\n        /* \"#utility.yul\":9341:9408   */\n      tag_71\n      jump\t// in\n    tag_185:\n        /* \"#utility.yul\":9435:9436   */\n      0x00\n        /* \"#utility.yul\":9459:9463   */\n      0x20\n        /* \"#utility.yul\":9446:9463   */\n      swap1\n      pop\n        /* \"#utility.yul\":9491:9493   */\n      0x1f\n        /* \"#utility.yul\":9483:9489   */\n      dup4\n        /* \"#utility.yul\":9480:9494   */\n      gt\n        /* \"#utility.yul\":9508:9509   */\n      0x01\n        /* \"#utility.yul\":9503:10121   */\n      dup2\n      eq\n      tag_187\n      jumpi\n        /* \"#utility.yul\":10165:10166   */\n      0x00\n        /* \"#utility.yul\":10182:10188   */\n      dup5\n        /* \"#utility.yul\":10179:10256   */\n      iszero\n      tag_188\n      jumpi\n        /* \"#utility.yul\":10231:10240   */\n      dup3\n        /* \"#utility.yul\":10226:10229   */\n      dup8\n        /* \"#utility.yul\":10222:10241   */\n      add\n        /* \"#utility.yul\":10216:10242   */\n      mload\n        /* \"#utility.yul\":10207:10242   */\n      swap1\n      pop\n        /* \"#utility.yul\":10179:10256   */\n    tag_188:\n        /* \"#utility.yul\":10282:10349   */\n      tag_189\n        /* \"#utility.yul\":10342:10348   */\n      dup6\n        /* \"#utility.yul\":10335:10340   */\n      dup3\n        /* \"#utility.yul\":10282:10349   */\n      tag_74\n      jump\t// in\n    tag_189:\n        /* \"#utility.yul\":10276:10280   */\n      dup7\n        /* \"#utility.yul\":10269:10350   */\n      sstore\n        /* \"#utility.yul\":10138:10360   */\n      pop\n        /* \"#utility.yul\":9473:10360   */\n      jump(tag_186)\n        /* \"#utility.yul\":9503:10121   */\n    tag_187:\n        /* \"#utility.yul\":9555:9559   */\n      0x1f\n        /* \"#utility.yul\":9551:9560   */\n      not\n        /* \"#utility.yul\":9543:9549   */\n      dup5\n        /* \"#utility.yul\":9539:9561   */\n      and\n        /* \"#utility.yul\":9589:9626   */\n      tag_190\n        /* \"#utility.yul\":9621:9625   */\n      dup7\n        /* \"#utility.yul\":9589:9626   */\n      tag_60\n      jump\t// in\n    tag_190:\n        /* \"#utility.yul\":9648:9649   */\n      0x00\n        /* \"#utility.yul\":9662:9870   */\n    tag_191:\n        /* \"#utility.yul\":9676:9683   */\n      dup3\n        /* \"#utility.yul\":9673:9674   */\n      dup2\n        /* \"#utility.yul\":9670:9684   */\n      lt\n        /* \"#utility.yul\":9662:9870   */\n      iszero\n      tag_193\n      jumpi\n        /* \"#utility.yul\":9755:9764   */\n      dup5\n        /* \"#utility.yul\":9750:9753   */\n      dup10\n        /* \"#utility.yul\":9746:9765   */\n      add\n        /* \"#utility.yul\":9740:9766   */\n      mload\n        /* \"#utility.yul\":9732:9738   */\n      dup3\n        /* \"#utility.yul\":9725:9767   */\n      sstore\n        /* \"#utility.yul\":9806:9807   */\n      0x01\n        /* \"#utility.yul\":9798:9804   */\n      dup3\n        /* \"#utility.yul\":9794:9808   */\n      add\n        /* \"#utility.yul\":9784:9808   */\n      swap2\n      pop\n        /* \"#utility.yul\":9853:9855   */\n      0x20\n        /* \"#utility.yul\":9842:9851   */\n      dup6\n        /* \"#utility.yul\":9838:9856   */\n      add\n        /* \"#utility.yul\":9825:9856   */\n      swap5\n      pop\n        /* \"#utility.yul\":9699:9703   */\n      0x20\n        /* \"#utility.yul\":9696:9697   */\n      dup2\n        /* \"#utility.yul\":9692:9704   */\n      add\n        /* \"#utility.yul\":9687:9704   */\n      swap1\n      pop\n        /* \"#utility.yul\":9662:9870   */\n      jump(tag_191)\n    tag_193:\n        /* \"#utility.yul\":9898:9904   */\n      dup7\n        /* \"#utility.yul\":9889:9896   */\n      dup4\n        /* \"#utility.yul\":9886:9905   */\n      lt\n        /* \"#utility.yul\":9883:10062   */\n      iszero\n      tag_194\n      jumpi\n        /* \"#utility.yul\":9956:9965   */\n      dup5\n        /* \"#utility.yul\":9951:9954   */\n      dup10\n        /* \"#utility.yul\":9947:9966   */\n      add\n        /* \"#utility.yul\":9941:9967   */\n      mload\n        /* \"#utility.yul\":9999:10047   */\n      tag_195\n        /* \"#utility.yul\":10041:10045   */\n      0x1f\n        /* \"#utility.yul\":10033:10039   */\n      dup10\n        /* \"#utility.yul\":10029:10046   */\n      and\n        /* \"#utility.yul\":10018:10027   */\n      dup3\n        /* \"#utility.yul\":9999:10047   */\n      tag_73\n      jump\t// in\n    tag_195:\n        /* \"#utility.yul\":9991:9997   */\n      dup4\n        /* \"#utility.yul\":9984:10048   */\n      sstore\n        /* \"#utility.yul\":9906:10062   */\n      pop\n        /* \"#utility.yul\":9883:10062   */\n    tag_194:\n        /* \"#utility.yul\":10108:10109   */\n      0x01\n        /* \"#utility.yul\":10104:10105   */\n      0x02\n        /* \"#utility.yul\":10096:10102   */\n      dup9\n        /* \"#utility.yul\":10092:10106   */\n      mul\n        /* \"#utility.yul\":10088:10110   */\n      add\n        /* \"#utility.yul\":10082:10086   */\n      dup9\n        /* \"#utility.yul\":10075:10111   */\n      sstore\n        /* \"#utility.yul\":9510:10121   */\n      pop\n      pop\n      pop\n        /* \"#utility.yul\":9473:10360   */\n    tag_186:\n      pop\n        /* \"#utility.yul\":9063:10366   */\n      pop\n      pop\n      pop\n        /* \"#utility.yul\":8971:10366   */\n      pop\n      pop\n      jump\t// out\n        /* \"#utility.yul\":10372:10552   */\n    tag_75:\n        /* \"#utility.yul\":10420:10497   */\n      0x4e487b7100000000000000000000000000000000000000000000000000000000\n        /* \"#utility.yul\":10417:10418   */\n      0x00\n        /* \"#utility.yul\":10410:10498   */\n      mstore\n        /* \"#utility.yul\":10517:10521   */\n      0x11\n        /* \"#utility.yul\":10514:10515   */\n      0x04\n        /* \"#utility.yul\":10507:10522   */\n      mstore\n        /* \"#utility.yul\":10541:10545   */\n      0x24\n        /* \"#utility.yul\":10538:10539   */\n      0x00\n        /* \"#utility.yul\":10531:10546   */\n      revert\n        /* \"#utility.yul\":10558:10791   */\n    tag_30:\n        /* \"#utility.yul\":10597:10600   */\n      0x00\n        /* \"#utility.yul\":10620:10644   */\n      tag_198\n        /* \"#utility.yul\":10638:10643   */\n      dup3\n        /* \"#utility.yul\":10620:10644   */\n      tag_50\n      jump\t// in\n    tag_198:\n        /* \"#utility.yul\":10611:10644   */\n      swap2\n      pop\n        /* \"#utility.yul\":10666:10732   */\n      0xffffffffffffffffffffffffffffffffffffffffffffffffffffffffffffffff\n        /* \"#utility.yul\":10659:10664   */\n      dup3\n        /* \"#utility.yul\":10656:10733   */\n      sub\n        /* \"#utility.yul\":10653:10756   */\n      tag_199\n      jumpi\n        /* \"#utility.yul\":10736:10754   */\n      tag_200\n      tag_75\n      jump\t// in\n    tag_200:\n        /* \"#utility.yul\":10653:10756   */\n    tag_199:\n        /* \"#utility.yul\":10783:10784   */\n      0x01\n        /* \"#utility.yul\":10776:10781   */\n      dup3\n        /* \"#utility.yul\":10772:10785   */\n      add\n        /* \"#utility.yul\":10765:10785   */\n      swap1\n      pop\n        /* \"#utility.yul\":10558:10791   */\n      swap2\n      swap1\n      pop\n      jump\t// out\n        /* \"#utility.yul\":10797:10968   */\n    tag_36:\n        /* \"#utility.yul\":10836:10839   */\n      0x00\n        /* \"#utility.yul\":10859:10883   */\n      tag_202\n        /* \"#utility.yul\":10877:10882   */\n      dup3\n        /* \"#utility.yul\":10859:10883   */\n      tag_50\n      jump\t// in\n    tag_202:\n        /* \"#utility.yul\":10850:10883   */\n      swap2\n      pop\n        /* \"#utility.yul\":10905:10909   */\n      0x00\n        /* \"#utility.yul\":10898:10903   */\n      dup3\n        /* \"#utility.yul\":10895:10910   */\n      sub\n        /* \"#utility.yul\":10892:10933   */\n      tag_203\n      jumpi\n        /* \"#utility.yul\":10913:10931   */\n      tag_204\n      tag_75\n      jump\t// in\n    tag_204:\n        /* \"#utility.yul\":10892:10933   */\n    tag_203:\n        /* \"#utility.yul\":10960:10961   */\n      0x01\n        /* \"#utility.yul\":10953:10958   */\n      dup3\n        /* \"#utility.yul\":10949:10962   */\n      sub\n        /* \"#utility.yul\":10942:10962   */\n      swap1\n      pop\n        /* \"#utility.yul\":10797:10968   */\n      swap2\n      swap1\n      pop\n      jump\t// out\n\n    auxdata: 0xa2646970667358221220ab26590047bfd12e530759454bb09a2bd41e369bf4e6710939fecf3c44ea123764736f6c634300081a0033\n}\n",
				"bytecode": {
					"linkReferences": {},
					"object": "60806040525f6001553480156012575f80fd5b50610818806100205f395ff3fe608060405234801561000f575f80fd5b506004361061004a575f3560e01c806336555b851461004e5780634ee5c2ee1461006a578063680d405f1461008657806380599e4b146100b6575b5f80fd5b6100686004803603810190610063919061034d565b6100d2565b005b610084600480360381019061007f919061034d565b610141565b005b6100a0600480360381019061009b91906103a7565b610167565b6040516100ad91906103fd565b60405180910390f35b6100d060048036038101906100cb91906103a7565b610193565b005b805f836040516100e29190610468565b908152602001604051809103902081905550600282908060018154018082558091505060019003905f5260205f20015f9091909190915090816101259190610678565b5060015f81548092919061013890610774565b91905055505050565b805f836040516101519190610468565b9081526020016040518091039020819055505050565b5f818051602081018201805184825260208301602085012081835280955050505050505f915090505481565b5f816040516101a29190610468565b90815260200160405180910390205f905560015f8154809291906101c5906107bb565b919050555050565b5f604051905090565b5f80fd5b5f80fd5b5f80fd5b5f80fd5b5f601f19601f8301169050919050565b7f4e487b71000000000000000000000000000000000000000000000000000000005f52604160045260245ffd5b61022c826101e6565b810181811067ffffffffffffffff8211171561024b5761024a6101f6565b5b80604052505050565b5f61025d6101cd565b90506102698282610223565b919050565b5f67ffffffffffffffff821115610288576102876101f6565b5b610291826101e6565b9050602081019050919050565b828183375f83830152505050565b5f6102be6102b98461026e565b610254565b9050828152602081018484840111156102da576102d96101e2565b5b6102e584828561029e565b509392505050565b5f82601f830112610301576103006101de565b5b81356103118482602086016102ac565b91505092915050565b5f819050919050565b61032c8161031a565b8114610336575f80fd5b50565b5f8135905061034781610323565b92915050565b5f8060408385031215610363576103626101d6565b5b5f83013567ffffffffffffffff8111156103805761037f6101da565b5b61038c858286016102ed565b925050602061039d85828601610339565b9150509250929050565b5f602082840312156103bc576103bb6101d6565b5b5f82013567ffffffffffffffff8111156103d9576103d86101da565b5b6103e5848285016102ed565b91505092915050565b6103f78161031a565b82525050565b5f6020820190506104105f8301846103ee565b92915050565b5f81519050919050565b5f81905092915050565b8281835e5f83830152505050565b5f61044282610416565b61044c8185610420565b935061045c81856020860161042a565b80840191505092915050565b5f6104738284610438565b915081905092915050565b7f4e487b71000000000000000000000000000000000000000000000000000000005f52602260045260245ffd5b5f60028204905060018216806104c257607f821691505b6020821081036104d5576104d461047e565b5b50919050565b5f819050815f5260205f209050919050565b5f6020601f8301049050919050565b5f82821b905092915050565b5f600883026105377fffffffffffffffffffffffffffffffffffffffffffffffffffffffffffffffff826104fc565b61054186836104fc565b95508019841693508086168417925050509392505050565b5f819050919050565b5f61057c6105776105728461031a565b610559565b61031a565b9050919050565b5f819050919050565b61059583610562565b6105a96105a182610583565b848454610508565b825550505050565b5f90565b6105bd6105b1565b6105c881848461058c565b505050565b5b818110156105eb576105e05f826105b5565b6001810190506105ce565b5050565b601f82111561063057610601816104db565b61060a846104ed565b81016020851015610619578190505b61062d610625856104ed565b8301826105cd565b50505b505050565b5f82821c905092915050565b5f6106505f1984600802610635565b1980831691505092915050565b5f6106688383610641565b9150826002028217905092915050565b61068182610416565b67ffffffffffffffff81111561069a576106996101f6565b5b6106a482546104ab565b6106af8282856105ef565b5f60209050601f8311600181146106e0575f84156106ce578287015190505b6106d8858261065d565b86555061073f565b601f1984166106ee866104db565b5f5b82811015610715578489015182556001820191506020850194506020810190506106f0565b86831015610732578489015161072e601f891682610641565b8355505b6001600288020188555050505b505050505050565b7f4e487b71000000000000000000000000000000000000000000000000000000005f52601160045260245ffd5b5f61077e8261031a565b91507fffffffffffffffffffffffffffffffffffffffffffffffffffffffffffffffff82036107b0576107af610747565b5b600182019050919050565b5f6107c58261031a565b91505f82036107d7576107d6610747565b5b60018203905091905056fea2646970667358221220ab26590047bfd12e530759454bb09a2bd41e369bf4e6710939fecf3c44ea123764736f6c634300081a0033",
					"opcodes": "PUSH1 0x80 PUSH1 0x40 MSTORE PUSH0 PUSH1 0x1 SSTORE CALLVALUE DUP1 ISZERO PUSH1 0x12 JUMPI PUSH0 DUP1 REVERT JUMPDEST POP PUSH2 0x818 DUP1 PUSH2 0x20 PUSH0 CODECOPY PUSH0 RETURN INVALID PUSH1 0x80 PUSH1 0x40 MSTORE CALLVALUE DUP1 ISZERO PUSH2 0xF JUMPI PUSH0 DUP1 REVERT JUMPDEST POP PUSH1 0x4 CALLDATASIZE LT PUSH2 0x4A JUMPI PUSH0 CALLDATALOAD PUSH1 0xE0 SHR DUP1 PUSH4 0x36555B85 EQ PUSH2 0x4E JUMPI DUP1 PUSH4 0x4EE5C2EE EQ PUSH2 0x6A JUMPI DUP1 PUSH4 0x680D405F EQ PUSH2 0x86 JUMPI DUP1 PUSH4 0x80599E4B EQ PUSH2 0xB6 JUMPI JUMPDEST PUSH0 DUP1 REVERT JUMPDEST PUSH2 0x68 PUSH1 0x4 DUP1 CALLDATASIZE SUB DUP2 ADD SWAP1 PUSH2 0x63 SWAP2 SWAP1 PUSH2 0x34D JUMP JUMPDEST PUSH2 0xD2 JUMP JUMPDEST STOP JUMPDEST PUSH2 0x84 PUSH1 0x4 DUP1 CALLDATASIZE SUB DUP2 ADD SWAP1 PUSH2 0x7F SWAP2 SWAP1 PUSH2 0x34D JUMP JUMPDEST PUSH2 0x141 JUMP JUMPDEST STOP JUMPDEST PUSH2 0xA0 PUSH1 0x4 DUP1 CALLDATASIZE SUB DUP2 ADD SWAP1 PUSH2 0x9B SWAP2 SWAP1 PUSH2 0x3A7 JUMP JUMPDEST PUSH2 0x167 JUMP JUMPDEST PUSH1 0x40 MLOAD PUSH2 0xAD SWAP2 SWAP1 PUSH2 0x3FD JUMP JUMPDEST PUSH1 0x40 MLOAD DUP1 SWAP2 SUB SWAP1 RETURN JUMPDEST PUSH2 0xD0 PUSH1 0x4 DUP1 CALLDATASIZE SUB DUP2 ADD SWAP1 PUSH2 0xCB SWAP2 SWAP1 PUSH2 0x3A7 JUMP JUMPDEST PUSH2 0x193 JUMP JUMPDEST STOP JUMPDEST DUP1 PUSH0 DUP4 PUSH1 0x40 MLOAD PUSH2 0xE2 SWAP2 SWAP1 PUSH2 0x468 JUMP JUMPDEST SWAP1 DUP2 MSTORE PUSH1 0x20 ADD PUSH1 0x40 MLOAD DUP1 SWAP2 SUB SWAP1 KECCAK256 DUP2 SWAP1 SSTORE POP PUSH1 0x2 DUP3 SWAP1 DUP1 PUSH1 0x1 DUP2 SLOAD ADD DUP1 DUP3 SSTORE DUP1 SWAP2 POP POP PUSH1 0x1 SWAP1 SUB SWAP1 PUSH0 MSTORE PUSH1 0x20 PUSH0 KECCAK256 ADD PUSH0 SWAP1 SWAP2 SWAP1 SWAP2 SWAP1 SWAP2 POP SWAP1 DUP2 PUSH2 0x125 SWAP2 SWAP1 PUSH2 0x678 JUMP JUMPDEST POP PUSH1 0x1 PUSH0 DUP2 SLOAD DUP1 SWAP3 SWAP2 SWAP1 PUSH2 0x138 SWAP1 PUSH2 0x774 JUMP JUMPDEST SWAP2 SWAP1 POP SSTORE POP POP POP JUMP JUMPDEST DUP1 PUSH0 DUP4 PUSH1 0x40 MLOAD PUSH2 0x151 SWAP2 SWAP1 PUSH2 0x468 JUMP JUMPDEST SWAP1 DUP2 MSTORE PUSH1 0x20 ADD PUSH1 0x40 MLOAD DUP1 SWAP2 SUB SWAP1 KECCAK256 DUP2 SWAP1 SSTORE POP POP POP JUMP JUMPDEST PUSH0 DUP2 DUP1 MLOAD PUSH1 0x20 DUP2 ADD DUP3 ADD DUP1 MLOAD DUP5 DUP3 MSTORE PUSH1 0x20 DUP4 ADD PUSH1 0x20 DUP6 ADD KECCAK256 DUP2 DUP4 MSTORE DUP1 SWAP6 POP POP POP POP POP POP PUSH0 SWAP2 POP SWAP1 POP SLOAD DUP2 JUMP JUMPDEST PUSH0 DUP2 PUSH1 0x40 MLOAD PUSH2 0x1A2 SWAP2 SWAP1 PUSH2 0x468 JUMP JUMPDEST SWAP1 DUP2 MSTORE PUSH1 0x20 ADD PUSH1 0x40 MLOAD DUP1 SWAP2 SUB SWAP1 KECCAK256 PUSH0 SWAP1 SSTORE PUSH1 0x1 PUSH0 DUP2 SLOAD DUP1 SWAP3 SWAP2 SWAP1 PUSH2 0x1C5 SWAP1 PUSH2 0x7BB JUMP JUMPDEST SWAP2 SWAP1 POP SSTORE POP POP JUMP JUMPDEST PUSH0 PUSH1 0x40 MLOAD SWAP1 POP SWAP1 JUMP JUMPDEST PUSH0 DUP1 REVERT JUMPDEST PUSH0 DUP1 REVERT JUMPDEST PUSH0 DUP1 REVERT JUMPDEST PUSH0 DUP1 REVERT JUMPDEST PUSH0 PUSH1 0x1F NOT PUSH1 0x1F DUP4 ADD AND SWAP1 POP SWAP2 SWAP1 POP JUMP JUMPDEST PUSH32 0x4E487B7100000000000000000000000000000000000000000000000000000000 PUSH0 MSTORE PUSH1 0x41 PUSH1 0x4 MSTORE PUSH1 0x24 PUSH0 REVERT JUMPDEST PUSH2 0x22C DUP3 PUSH2 0x1E6 JUMP JUMPDEST DUP2 ADD DUP2 DUP2 LT PUSH8 0xFFFFFFFFFFFFFFFF DUP3 GT OR ISZERO PUSH2 0x24B JUMPI PUSH2 0x24A PUSH2 0x1F6 JUMP JUMPDEST JUMPDEST DUP1 PUSH1 0x40 MSTORE POP POP POP JUMP JUMPDEST PUSH0 PUSH2 0x25D PUSH2 0x1CD JUMP JUMPDEST SWAP1 POP PUSH2 0x269 DUP3 DUP3 PUSH2 0x223 JUMP JUMPDEST SWAP2 SWAP1 POP JUMP JUMPDEST PUSH0 PUSH8 0xFFFFFFFFFFFFFFFF DUP3 GT ISZERO PUSH2 0x288 JUMPI PUSH2 0x287 PUSH2 0x1F6 JUMP JUMPDEST JUMPDEST PUSH2 0x291 DUP3 PUSH2 0x1E6 JUMP JUMPDEST SWAP1 POP PUSH1 0x20 DUP2 ADD SWAP1 POP SWAP2 SWAP1 POP JUMP JUMPDEST DUP3 DUP2 DUP4 CALLDATACOPY PUSH0 DUP4 DUP4 ADD MSTORE POP POP POP JUMP JUMPDEST PUSH0 PUSH2 0x2BE PUSH2 0x2B9 DUP5 PUSH2 0x26E JUMP JUMPDEST PUSH2 0x254 JUMP JUMPDEST SWAP1 POP DUP3 DUP2 MSTORE PUSH1 0x20 DUP2 ADD DUP5 DUP5 DUP5 ADD GT ISZERO PUSH2 0x2DA JUMPI PUSH2 0x2D9 PUSH2 0x1E2 JUMP JUMPDEST JUMPDEST PUSH2 0x2E5 DUP5 DUP3 DUP6 PUSH2 0x29E JUMP JUMPDEST POP SWAP4 SWAP3 POP POP POP JUMP JUMPDEST PUSH0 DUP3 PUSH1 0x1F DUP4 ADD SLT PUSH2 0x301 JUMPI PUSH2 0x300 PUSH2 0x1DE JUMP JUMPDEST JUMPDEST DUP2 CALLDATALOAD PUSH2 0x311 DUP5 DUP3 PUSH1 0x20 DUP7 ADD PUSH2 0x2AC JUMP JUMPDEST SWAP2 POP POP SWAP3 SWAP2 POP POP JUMP JUMPDEST PUSH0 DUP2 SWAP1 POP SWAP2 SWAP1 POP JUMP JUMPDEST PUSH2 0x32C DUP2 PUSH2 0x31A JUMP JUMPDEST DUP2 EQ PUSH2 0x336 JUMPI PUSH0 DUP1 REVERT JUMPDEST POP JUMP JUMPDEST PUSH0 DUP2 CALLDATALOAD SWAP1 POP PUSH2 0x347 DUP2 PUSH2 0x323 JUMP JUMPDEST SWAP3 SWAP2 POP POP JUMP JUMPDEST PUSH0 DUP1 PUSH1 0x40 DUP4 DUP6 SUB SLT ISZERO PUSH2 0x363 JUMPI PUSH2 0x362 PUSH2 0x1D6 JUMP JUMPDEST JUMPDEST PUSH0 DUP4 ADD CALLDATALOAD PUSH8 0xFFFFFFFFFFFFFFFF DUP2 GT ISZERO PUSH2 0x380 JUMPI PUSH2 0x37F PUSH2 0x1DA JUMP JUMPDEST JUMPDEST PUSH2 0x38C DUP6 DUP3 DUP7 ADD PUSH2 0x2ED JUMP JUMPDEST SWAP3 POP POP PUSH1 0x20 PUSH2 0x39D DUP6 DUP3 DUP7 ADD PUSH2 0x339 JUMP JUMPDEST SWAP2 POP POP SWAP3 POP SWAP3 SWAP1 POP JUMP JUMPDEST PUSH0 PUSH1 0x20 DUP3 DUP5 SUB SLT ISZERO PUSH2 0x3BC JUMPI PUSH2 0x3BB PUSH2 0x1D6 JUMP JUMPDEST JUMPDEST PUSH0 DUP3 ADD CALLDATALOAD PUSH8 0xFFFFFFFFFFFFFFFF DUP2 GT ISZERO PUSH2 0x3D9 JUMPI PUSH2 0x3D8 PUSH2 0x1DA JUMP JUMPDEST JUMPDEST PUSH2 0x3E5 DUP5 DUP3 DUP6 ADD PUSH2 0x2ED JUMP JUMPDEST SWAP2 POP POP SWAP3 SWAP2 POP POP JUMP JUMPDEST PUSH2 0x3F7 DUP2 PUSH2 0x31A JUMP JUMPDEST DUP3 MSTORE POP POP JUMP JUMPDEST PUSH0 PUSH1 0x20 DUP3 ADD SWAP1 POP PUSH2 0x410 PUSH0 DUP4 ADD DUP5 PUSH2 0x3EE JUMP JUMPDEST SWAP3 SWAP2 POP POP JUMP JUMPDEST PUSH0 DUP2 MLOAD SWAP1 POP SWAP2 SWAP1 POP JUMP JUMPDEST PUSH0 DUP2 SWAP1 POP SWAP3 SWAP2 POP POP JUMP JUMPDEST DUP3 DUP2 DUP4 MCOPY PUSH0 DUP4 DUP4 ADD MSTORE POP POP POP JUMP JUMPDEST PUSH0 PUSH2 0x442 DUP3 PUSH2 0x416 JUMP JUMPDEST PUSH2 0x44C DUP2 DUP6 PUSH2 0x420 JUMP JUMPDEST SWAP4 POP PUSH2 0x45C DUP2 DUP6 PUSH1 0x20 DUP7 ADD PUSH2 0x42A JUMP JUMPDEST DUP1 DUP5 ADD SWAP2 POP POP SWAP3 SWAP2 POP POP JUMP JUMPDEST PUSH0 PUSH2 0x473 DUP3 DUP5 PUSH2 0x438 JUMP JUMPDEST SWAP2 POP DUP2 SWAP1 POP SWAP3 SWAP2 POP POP JUMP JUMPDEST PUSH32 0x4E487B7100000000000000000000000000000000000000000000000000000000 PUSH0 MSTORE PUSH1 0x22 PUSH1 0x4 MSTORE PUSH1 0x24 PUSH0 REVERT JUMPDEST PUSH0 PUSH1 0x2 DUP3 DIV SWAP1 POP PUSH1 0x1 DUP3 AND DUP1 PUSH2 0x4C2 JUMPI PUSH1 0x7F DUP3 AND SWAP2 POP JUMPDEST PUSH1 0x20 DUP3 LT DUP2 SUB PUSH2 0x4D5 JUMPI PUSH2 0x4D4 PUSH2 0x47E JUMP JUMPDEST JUMPDEST POP SWAP2 SWAP1 POP JUMP JUMPDEST PUSH0 DUP2 SWAP1 POP DUP2 PUSH0 MSTORE PUSH1 0x20 PUSH0 KECCAK256 SWAP1 POP SWAP2 SWAP1 POP JUMP JUMPDEST PUSH0 PUSH1 0x20 PUSH1 0x1F DUP4 ADD DIV SWAP1 POP SWAP2 SWAP1 POP JUMP JUMPDEST PUSH0 DUP3 DUP3 SHL SWAP1 POP SWAP3 SWAP2 POP POP JUMP JUMPDEST PUSH0 PUSH1 0x8 DUP4 MUL PUSH2 0x537 PUSH32 0xFFFFFFFFFFFFFFFFFFFFFFFFFFFFFFFFFFFFFFFFFFFFFFFFFFFFFFFFFFFFFFFF DUP3 PUSH2 0x4FC JUMP JUMPDEST PUSH2 0x541 DUP7 DUP4 PUSH2 0x4FC JUMP JUMPDEST SWAP6 POP DUP1 NOT DUP5 AND SWAP4 POP DUP1 DUP7 AND DUP5 OR SWAP3 POP POP POP SWAP4 SWAP3 POP POP POP JUMP JUMPDEST PUSH0 DUP2 SWAP1 POP SWAP2 SWAP1 POP JUMP JUMPDEST PUSH0 PUSH2 0x57C PUSH2 0x577 PUSH2 0x572 DUP5 PUSH2 0x31A JUMP JUMPDEST PUSH2 0x559 JUMP JUMPDEST PUSH2 0x31A JUMP JUMPDEST SWAP1 POP SWAP2 SWAP1 POP JUMP JUMPDEST PUSH0 DUP2 SWAP1 POP SWAP2 SWAP1 POP JUMP JUMPDEST PUSH2 0x595 DUP4 PUSH2 0x562 JUMP JUMPDEST PUSH2 0x5A9 PUSH2 0x5A1 DUP3 PUSH2 0x583 JUMP JUMPDEST DUP5 DUP5 SLOAD PUSH2 0x508 JUMP JUMPDEST DUP3 SSTORE POP POP POP POP JUMP JUMPDEST PUSH0 SWAP1 JUMP JUMPDEST PUSH2 0x5BD PUSH2 0x5B1 JUMP JUMPDEST PUSH2 0x5C8 DUP2 DUP5 DUP5 PUSH2 0x58C JUMP JUMPDEST POP POP POP JUMP JUMPDEST JUMPDEST DUP2 DUP2 LT ISZERO PUSH2 0x5EB JUMPI PUSH2 0x5E0 PUSH0 DUP3 PUSH2 0x5B5 JUMP JUMPDEST PUSH1 0x1 DUP2 ADD SWAP1 POP PUSH2 0x5CE JUMP JUMPDEST POP POP JUMP JUMPDEST PUSH1 0x1F DUP3 GT ISZERO PUSH2 0x630 JUMPI PUSH2 0x601 DUP2 PUSH2 0x4DB JUMP JUMPDEST PUSH2 0x60A DUP5 PUSH2 0x4ED JUMP JUMPDEST DUP2 ADD PUSH1 0x20 DUP6 LT ISZERO PUSH2 0x619 JUMPI DUP2 SWAP1 POP JUMPDEST PUSH2 0x62D PUSH2 0x625 DUP6 PUSH2 0x4ED JUMP JUMPDEST DUP4 ADD DUP3 PUSH2 0x5CD JUMP JUMPDEST POP POP JUMPDEST POP POP POP JUMP JUMPDEST PUSH0 DUP3 DUP3 SHR SWAP1 POP SWAP3 SWAP2 POP POP JUMP JUMPDEST PUSH0 PUSH2 0x650 PUSH0 NOT DUP5 PUSH1 0x8 MUL PUSH2 0x635 JUMP JUMPDEST NOT DUP1 DUP4 AND SWAP2 POP POP SWAP3 SWAP2 POP POP JUMP JUMPDEST PUSH0 PUSH2 0x668 DUP4 DUP4 PUSH2 0x641 JUMP JUMPDEST SWAP2 POP DUP3 PUSH1 0x2 MUL DUP3 OR SWAP1 POP SWAP3 SWAP2 POP POP JUMP JUMPDEST PUSH2 0x681 DUP3 PUSH2 0x416 JUMP JUMPDEST PUSH8 0xFFFFFFFFFFFFFFFF DUP2 GT ISZERO PUSH2 0x69A JUMPI PUSH2 0x699 PUSH2 0x1F6 JUMP JUMPDEST JUMPDEST PUSH2 0x6A4 DUP3 SLOAD PUSH2 0x4AB JUMP JUMPDEST PUSH2 0x6AF DUP3 DUP3 DUP6 PUSH2 0x5EF JUMP JUMPDEST PUSH0 PUSH1 0x20 SWAP1 POP PUSH1 0x1F DUP4 GT PUSH1 0x1 DUP2 EQ PUSH2 0x6E0 JUMPI PUSH0 DUP5 ISZERO PUSH2 0x6CE JUMPI DUP3 DUP8 ADD MLOAD SWAP1 POP JUMPDEST PUSH2 0x6D8 DUP6 DUP3 PUSH2 0x65D JUMP JUMPDEST DUP7 SSTORE POP PUSH2 0x73F JUMP JUMPDEST PUSH1 0x1F NOT DUP5 AND PUSH2 0x6EE DUP7 PUSH2 0x4DB JUMP JUMPDEST PUSH0 JUMPDEST DUP3 DUP2 LT ISZERO PUSH2 0x715 JUMPI DUP5 DUP10 ADD MLOAD DUP3 SSTORE PUSH1 0x1 DUP3 ADD SWAP2 POP PUSH1 0x20 DUP6 ADD SWAP5 POP PUSH1 0x20 DUP2 ADD SWAP1 POP PUSH2 0x6F0 JUMP JUMPDEST DUP7 DUP4 LT ISZERO PUSH2 0x732 JUMPI DUP5 DUP10 ADD MLOAD PUSH2 0x72E PUSH1 0x1F DUP10 AND DUP3 PUSH2 0x641 JUMP JUMPDEST DUP4 SSTORE POP JUMPDEST PUSH1 0x1 PUSH1 0x2 DUP9 MUL ADD DUP9 SSTORE POP POP POP JUMPDEST POP POP POP POP POP POP JUMP JUMPDEST PUSH32 0x4E487B7100000000000000000000000000000000000000000000000000000000 PUSH0 MSTORE PUSH1 0x11 PUSH1 0x4 MSTORE PUSH1 0x24 PUSH0 REVERT JUMPDEST PUSH0 PUSH2 0x77E DUP3 PUSH2 0x31A JUMP JUMPDEST SWAP2 POP PUSH32 0xFFFFFFFFFFFFFFFFFFFFFFFFFFFFFFFFFFFFFFFFFFFFFFFFFFFFFFFFFFFFFFFF DUP3 SUB PUSH2 0x7B0 JUMPI PUSH2 0x7AF PUSH2 0x747 JUMP JUMPDEST JUMPDEST PUSH1 0x1 DUP3 ADD SWAP1 POP SWAP2 SWAP1 POP JUMP JUMPDEST PUSH0 PUSH2 0x7C5 DUP3 PUSH2 0x31A JUMP JUMPDEST SWAP2 POP PUSH0 DUP3 SUB PUSH2 0x7D7 JUMPI PUSH2 0x7D6 PUSH2 0x747 JUMP JUMPDEST JUMPDEST PUSH1 0x1 DUP3 SUB SWAP1 POP SWAP2 SWAP1 POP JUMP INVALID LOG2 PUSH5 0x6970667358 0x22 SLT KECCAK256 0xAB 0x26 MSIZE STOP SELFBALANCE 0xBF 0xD1 0x2E MSTORE8 SMOD MSIZE GASLIMIT 0x4B 0xB0 SWAP11 0x2B 0xD4 0x1E CALLDATASIZE SWAP12 DELEGATECALL 0xE6 PUSH18 0x939FECF3C44EA123764736F6C634300081A STOP CALLER "
				},
				"gasEstimates": {
					"creation": {
						"codeDepositCost": "414400",
						"executionCost": "5452",
						"totalCost": "419852"
					},
					"external": {
						"add(string,uint256)": "infinite",
						"m(string)": "infinite",
						"remove(string)": "infinite",
						"update(string,uint256)": "infinite"
					}
				},
				"methodIdentifiers": {
					"add(string,uint256)": "36555b85",
					"m(string)": "680d405f",
					"remove(string)": "80599e4b",
					"update(string,uint256)": "4ee5c2ee"
				}
			},
			"storageLayout": {
				"storage": [
					{
						"astId": 5,
						"contract": "contracts/mapping,sol.sol:map",
						"label": "m",
						"offset": 0,
						"slot": "0",
						"type": "t_mapping(t_string_memory_ptr,t_uint256)"
					},
					{
						"astId": 8,
						"contract": "contracts/mapping,sol.sol:map",
						"label": "size",
						"offset": 0,
						"slot": "1",
						"type": "t_uint256"
					},
					{
						"astId": 11,
						"contract": "contracts/mapping,sol.sol:map",
						"label": "keys",
						"offset": 0,
						"slot": "2",
						"type": "t_array(t_string_storage)dyn_storage"
					}
				],
				"types": {
					"t_array(t_string_storage)dyn_storage": {
						"base": "t_string_storage",
						"encoding": "dynamic_array",
						"label": "string[]",
						"numberOfBytes": "32"
					},
					"t_mapping(t_string_memory_ptr,t_uint256)": {
						"encoding": "mapping",
						"key": "t_string_memory_ptr",
						"label": "mapping(string => uint256)",
						"numberOfBytes": "32",
						"value": "t_uint256"
					},
					"t_string_memory_ptr": {
						"encoding": "bytes",
						"label": "string",
						"numberOfBytes": "32"
					},
					"t_string_storage": {
						"encoding": "bytes",
						"label": "string",
						"numberOfBytes": "32"
					},
					"t_uint256": {
						"encoding": "inplace",
						"label": "uint256",
						"numberOfBytes": "32"
					}
				}
			},
			"userdoc": {
				"kind": "user",
				"methods": {},
				"version": 1
			}
		}
	}
}