{
	"contracts/function.sol": {
		"function1": {
			"abi": [
				{
					"inputs": [
						{
							"internalType": "int256",
							"name": "num1",
							"type": "int256"
						},
						{
							"internalType": "int256",
							"name": "num2",
							"type": "int256"
						}
					],
					"name": "add",
					"outputs": [
						{
							"internalType": "int256",
							"name": "",
							"type": "int256"
						}
					],
					"stateMutability": "pure",
					"type": "function"
				},
				{
					"inputs": [
						{
							"internalType": "int256",
							"name": "num1",
							"type": "int256"
						},
						{
							"internalType": "int256",
							"name": "num2",
							"type": "int256"
						}
					],
					"name": "sun",
					"outputs": [
						{
							"internalType": "int256",
							"name": "",
							"type": "int256"
						}
					],
					"stateMutability": "pure",
					"type": "function"
				}
			],
			"devdoc": {
				"kind": "dev",
				"methods": {},
				"version": 1
			},
			"evm": {
				"assembly": "    /* \"contracts/function.sol\":76:383  contract function1... */\n  mstore(0x40, 0x80)\n  callvalue\n  dup1\n  iszero\n  tag_1\n  jumpi\n  0x00\n  dup1\n  revert\ntag_1:\n  pop\n  dataSize(sub_0)\n  dup1\n  dataOffset(sub_0)\n  0x00\n  codecopy\n  0x00\n  return\nstop\n\nsub_0: assembly {\n        /* \"contracts/function.sol\":76:383  contract function1... */\n      mstore(0x40, 0x80)\n      callvalue\n      dup1\n      iszero\n      tag_1\n      jumpi\n      0x00\n      dup1\n      revert\n    tag_1:\n      pop\n      jumpi(tag_2, lt(calldatasize, 0x04))\n      shr(0xe0, calldataload(0x00))\n      dup1\n      0x8f4cf6fd\n      eq\n      tag_3\n      jumpi\n      dup1\n      0xa5f3c23b\n      eq\n      tag_4\n      jumpi\n    tag_2:\n      0x00\n      dup1\n      revert\n        /* \"contracts/function.sol\":281:380  function sun(int num1,int num2)public pure   returns (int)... */\n    tag_3:\n      tag_5\n      0x04\n      dup1\n      calldatasize\n      sub\n      dup2\n      add\n      swap1\n      tag_6\n      swap2\n      swap1\n      tag_7\n      jump\t// in\n    tag_6:\n      tag_8\n      jump\t// in\n    tag_5:\n      mload(0x40)\n      tag_9\n      swap2\n      swap1\n      tag_10\n      jump\t// in\n    tag_9:\n      mload(0x40)\n      dup1\n      swap2\n      sub\n      swap1\n      return\n        /* \"contracts/function.sol\":171:275  function add(int num1,int num2) public  pure returns(int)... */\n    tag_4:\n      tag_11\n      0x04\n      dup1\n      calldatasize\n      sub\n      dup2\n      add\n      swap1\n      tag_12\n      swap2\n      swap1\n      tag_7\n      jump\t// in\n    tag_12:\n      tag_13\n      jump\t// in\n    tag_11:\n      mload(0x40)\n      tag_14\n      swap2\n      swap1\n      tag_10\n      jump\t// in\n    tag_14:\n      mload(0x40)\n      dup1\n      swap2\n      sub\n      swap1\n      return\n        /* \"contracts/function.sol\":281:380  function sun(int num1,int num2)public pure   returns (int)... */\n    tag_8:\n        /* \"contracts/function.sol\":335:338  int */\n      0x00\n        /* \"contracts/function.sol\":368:372  num2 */\n      dup2\n        /* \"contracts/function.sol\":363:367  num1 */\n      dup4\n        /* \"contracts/function.sol\":363:372  num1-num2 */\n      tag_16\n      swap2\n      swap1\n      tag_17\n      jump\t// in\n    tag_16:\n        /* \"contracts/function.sol\":356:372  return num1-num2 */\n      swap1\n      pop\n        /* \"contracts/function.sol\":281:380  function sun(int num1,int num2)public pure   returns (int)... */\n      swap3\n      swap2\n      pop\n      pop\n      jump\t// out\n        /* \"contracts/function.sol\":171:275  function add(int num1,int num2) public  pure returns(int)... */\n    tag_13:\n        /* \"contracts/function.sol\":224:227  int */\n      0x00\n        /* \"contracts/function.sol\":263:267  num2 */\n      dup2\n        /* \"contracts/function.sol\":258:262  num1 */\n      dup4\n        /* \"contracts/function.sol\":258:267  num1+num2 */\n      tag_19\n      swap2\n      swap1\n      tag_20\n      jump\t// in\n    tag_19:\n        /* \"contracts/function.sol\":251:267  return num1+num2 */\n      swap1\n      pop\n        /* \"contracts/function.sol\":171:275  function add(int num1,int num2) public  pure returns(int)... */\n      swap3\n      swap2\n      pop\n      pop\n      jump\t// out\n        /* \"#utility.yul\":88:205   */\n    tag_22:\n        /* \"#utility.yul\":197:198   */\n      0x00\n        /* \"#utility.yul\":194:195   */\n      dup1\n        /* \"#utility.yul\":187:199   */\n      revert\n        /* \"#utility.yul\":334:410   */\n    tag_24:\n        /* \"#utility.yul\":370:377   */\n      0x00\n        /* \"#utility.yul\":399:404   */\n      dup2\n        /* \"#utility.yul\":388:404   */\n      swap1\n      pop\n        /* \"#utility.yul\":334:410   */\n      swap2\n      swap1\n      pop\n      jump\t// out\n        /* \"#utility.yul\":416:536   */\n    tag_25:\n        /* \"#utility.yul\":488:511   */\n      tag_35\n        /* \"#utility.yul\":505:510   */\n      dup2\n        /* \"#utility.yul\":488:511   */\n      tag_24\n      jump\t// in\n    tag_35:\n        /* \"#utility.yul\":481:486   */\n      dup2\n        /* \"#utility.yul\":478:512   */\n      eq\n        /* \"#utility.yul\":468:530   */\n      tag_36\n      jumpi\n        /* \"#utility.yul\":526:527   */\n      0x00\n        /* \"#utility.yul\":523:524   */\n      dup1\n        /* \"#utility.yul\":516:528   */\n      revert\n        /* \"#utility.yul\":468:530   */\n    tag_36:\n        /* \"#utility.yul\":416:536   */\n      pop\n      jump\t// out\n        /* \"#utility.yul\":542:679   */\n    tag_26:\n        /* \"#utility.yul\":587:592   */\n      0x00\n        /* \"#utility.yul\":625:631   */\n      dup2\n        /* \"#utility.yul\":612:632   */\n      calldataload\n        /* \"#utility.yul\":603:632   */\n      swap1\n      pop\n        /* \"#utility.yul\":641:673   */\n      tag_38\n        /* \"#utility.yul\":667:672   */\n      dup2\n        /* \"#utility.yul\":641:673   */\n      tag_25\n      jump\t// in\n    tag_38:\n        /* \"#utility.yul\":542:679   */\n      swap3\n      swap2\n      pop\n      pop\n      jump\t// out\n        /* \"#utility.yul\":685:1155   */\n    tag_7:\n        /* \"#utility.yul\":751:757   */\n      0x00\n        /* \"#utility.yul\":759:765   */\n      dup1\n        /* \"#utility.yul\":808:810   */\n      0x40\n        /* \"#utility.yul\":796:805   */\n      dup4\n        /* \"#utility.yul\":787:794   */\n      dup6\n        /* \"#utility.yul\":783:806   */\n      sub\n        /* \"#utility.yul\":779:811   */\n      slt\n        /* \"#utility.yul\":776:895   */\n      iszero\n      tag_40\n      jumpi\n        /* \"#utility.yul\":814:893   */\n      tag_41\n      tag_22\n      jump\t// in\n    tag_41:\n        /* \"#utility.yul\":776:895   */\n    tag_40:\n        /* \"#utility.yul\":934:935   */\n      0x00\n        /* \"#utility.yul\":959:1011   */\n      tag_42\n        /* \"#utility.yul\":1003:1010   */\n      dup6\n        /* \"#utility.yul\":994:1000   */\n      dup3\n        /* \"#utility.yul\":983:992   */\n      dup7\n        /* \"#utility.yul\":979:1001   */\n      add\n        /* \"#utility.yul\":959:1011   */\n      tag_26\n      jump\t// in\n    tag_42:\n        /* \"#utility.yul\":949:1011   */\n      swap3\n      pop\n        /* \"#utility.yul\":905:1021   */\n      pop\n        /* \"#utility.yul\":1060:1062   */\n      0x20\n        /* \"#utility.yul\":1086:1138   */\n      tag_43\n        /* \"#utility.yul\":1130:1137   */\n      dup6\n        /* \"#utility.yul\":1121:1127   */\n      dup3\n        /* \"#utility.yul\":1110:1119   */\n      dup7\n        /* \"#utility.yul\":1106:1128   */\n      add\n        /* \"#utility.yul\":1086:1138   */\n      tag_26\n      jump\t// in\n    tag_43:\n        /* \"#utility.yul\":1076:1138   */\n      swap2\n      pop\n        /* \"#utility.yul\":1031:1148   */\n      pop\n        /* \"#utility.yul\":685:1155   */\n      swap3\n      pop\n      swap3\n      swap1\n      pop\n      jump\t// out\n        /* \"#utility.yul\":1161:1276   */\n    tag_27:\n        /* \"#utility.yul\":1246:1269   */\n      tag_45\n        /* \"#utility.yul\":1263:1268   */\n      dup2\n        /* \"#utility.yul\":1246:1269   */\n      tag_24\n      jump\t// in\n    tag_45:\n        /* \"#utility.yul\":1241:1244   */\n      dup3\n        /* \"#utility.yul\":1234:1270   */\n      mstore\n        /* \"#utility.yul\":1161:1276   */\n      pop\n      pop\n      jump\t// out\n        /* \"#utility.yul\":1282:1500   */\n    tag_10:\n        /* \"#utility.yul\":1373:1377   */\n      0x00\n        /* \"#utility.yul\":1411:1413   */\n      0x20\n        /* \"#utility.yul\":1400:1409   */\n      dup3\n        /* \"#utility.yul\":1396:1414   */\n      add\n        /* \"#utility.yul\":1388:1414   */\n      swap1\n      pop\n        /* \"#utility.yul\":1424:1493   */\n      tag_47\n        /* \"#utility.yul\":1490:1491   */\n      0x00\n        /* \"#utility.yul\":1479:1488   */\n      dup4\n        /* \"#utility.yul\":1475:1492   */\n      add\n        /* \"#utility.yul\":1466:1472   */\n      dup5\n        /* \"#utility.yul\":1424:1493   */\n      tag_27\n      jump\t// in\n    tag_47:\n        /* \"#utility.yul\":1282:1500   */\n      swap3\n      swap2\n      pop\n      pop\n      jump\t// out\n        /* \"#utility.yul\":1506:1686   */\n    tag_28:\n        /* \"#utility.yul\":1554:1631   */\n      0x4e487b7100000000000000000000000000000000000000000000000000000000\n        /* \"#utility.yul\":1551:1552   */\n      0x00\n        /* \"#utility.yul\":1544:1632   */\n      mstore\n        /* \"#utility.yul\":1651:1655   */\n      0x11\n        /* \"#utility.yul\":1648:1649   */\n      0x04\n        /* \"#utility.yul\":1641:1656   */\n      mstore\n        /* \"#utility.yul\":1675:1679   */\n      0x24\n        /* \"#utility.yul\":1672:1673   */\n      0x00\n        /* \"#utility.yul\":1665:1680   */\n      revert\n        /* \"#utility.yul\":1692:2064   */\n    tag_17:\n        /* \"#utility.yul\":1731:1735   */\n      0x00\n        /* \"#utility.yul\":1751:1770   */\n      tag_50\n        /* \"#utility.yul\":1768:1769   */\n      dup3\n        /* \"#utility.yul\":1751:1770   */\n      tag_24\n      jump\t// in\n    tag_50:\n        /* \"#utility.yul\":1746:1770   */\n      swap2\n      pop\n        /* \"#utility.yul\":1784:1803   */\n      tag_51\n        /* \"#utility.yul\":1801:1802   */\n      dup4\n        /* \"#utility.yul\":1784:1803   */\n      tag_24\n      jump\t// in\n    tag_51:\n        /* \"#utility.yul\":1779:1803   */\n      swap3\n      pop\n        /* \"#utility.yul\":1827:1828   */\n      dup3\n        /* \"#utility.yul\":1824:1825   */\n      dup3\n        /* \"#utility.yul\":1820:1829   */\n      sub\n        /* \"#utility.yul\":1812:1829   */\n      swap1\n      pop\n        /* \"#utility.yul\":2021:2022   */\n      dup2\n        /* \"#utility.yul\":2015:2019   */\n      dup2\n        /* \"#utility.yul\":2011:2023   */\n      slt\n        /* \"#utility.yul\":2007:2008   */\n      0x00\n        /* \"#utility.yul\":2004:2005   */\n      dup5\n        /* \"#utility.yul\":2000:2009   */\n      slt\n        /* \"#utility.yul\":1996:2024   */\n      and\n        /* \"#utility.yul\":1979:1980   */\n      dup3\n        /* \"#utility.yul\":1973:1977   */\n      dup3\n        /* \"#utility.yul\":1969:1981   */\n      sgt\n        /* \"#utility.yul\":1964:1965   */\n      0x00\n        /* \"#utility.yul\":1961:1962   */\n      dup6\n        /* \"#utility.yul\":1957:1966   */\n      slt\n        /* \"#utility.yul\":1950:1967   */\n      iszero\n        /* \"#utility.yul\":1946:1982   */\n      and\n        /* \"#utility.yul\":1930:2034   */\n      or\n        /* \"#utility.yul\":1927:2057   */\n      iszero\n      tag_52\n      jumpi\n        /* \"#utility.yul\":2037:2055   */\n      tag_53\n      tag_28\n      jump\t// in\n    tag_53:\n        /* \"#utility.yul\":1927:2057   */\n    tag_52:\n        /* \"#utility.yul\":1692:2064   */\n      swap3\n      swap2\n      pop\n      pop\n      jump\t// out\n        /* \"#utility.yul\":2070:2445   */\n    tag_20:\n        /* \"#utility.yul\":2109:2112   */\n      0x00\n        /* \"#utility.yul\":2128:2147   */\n      tag_55\n        /* \"#utility.yul\":2145:2146   */\n      dup3\n        /* \"#utility.yul\":2128:2147   */\n      tag_24\n      jump\t// in\n    tag_55:\n        /* \"#utility.yul\":2123:2147   */\n      swap2\n      pop\n        /* \"#utility.yul\":2161:2180   */\n      tag_56\n        /* \"#utility.yul\":2178:2179   */\n      dup4\n        /* \"#utility.yul\":2161:2180   */\n      tag_24\n      jump\t// in\n    tag_56:\n        /* \"#utility.yul\":2156:2180   */\n      swap3\n      pop\n        /* \"#utility.yul\":2203:2204   */\n      dup3\n        /* \"#utility.yul\":2200:2201   */\n      dup3\n        /* \"#utility.yul\":2196:2205   */\n      add\n        /* \"#utility.yul\":2189:2205   */\n      swap1\n      pop\n        /* \"#utility.yul\":2401:2402   */\n      dup3\n        /* \"#utility.yul\":2396:2399   */\n      dup2\n        /* \"#utility.yul\":2392:2403   */\n      slt\n        /* \"#utility.yul\":2385:2404   */\n      iszero\n        /* \"#utility.yul\":2381:2382   */\n      0x00\n        /* \"#utility.yul\":2378:2379   */\n      dup4\n        /* \"#utility.yul\":2374:2383   */\n      slt\n        /* \"#utility.yul\":2370:2405   */\n      and\n        /* \"#utility.yul\":2353:2354   */\n      dup4\n        /* \"#utility.yul\":2348:2351   */\n      dup3\n        /* \"#utility.yul\":2344:2355   */\n      slt\n        /* \"#utility.yul\":2339:2340   */\n      0x00\n        /* \"#utility.yul\":2336:2337   */\n      dup5\n        /* \"#utility.yul\":2332:2341   */\n      slt\n        /* \"#utility.yul\":2325:2342   */\n      iszero\n        /* \"#utility.yul\":2321:2356   */\n      and\n        /* \"#utility.yul\":2305:2415   */\n      or\n        /* \"#utility.yul\":2302:2438   */\n      iszero\n      tag_57\n      jumpi\n        /* \"#utility.yul\":2418:2436   */\n      tag_58\n      tag_28\n      jump\t// in\n    tag_58:\n        /* \"#utility.yul\":2302:2438   */\n    tag_57:\n        /* \"#utility.yul\":2070:2445   */\n      swap3\n      swap2\n      pop\n      pop\n      jump\t// out\n\n    auxdata: 0xa2646970667358221220fa76dfadff2fb42797fbcf3b086f0f16f5dcd9215796150944a69ce0a37a437064736f6c634300081a0033\n}\n",
				"bytecode": {
					"linkReferences": {},
					"object": "6080604052348015600e575f80fd5b506102438061001c5f395ff3fe608060405234801561000f575f80fd5b5060043610610034575f3560e01c80638f4cf6fd14610038578063a5f3c23b14610068575b5f80fd5b610052600480360381019061004d91906100f9565b610098565b60405161005f9190610146565b60405180910390f35b610082600480360381019061007d91906100f9565b6100ad565b60405161008f9190610146565b60405180910390f35b5f81836100a5919061018c565b905092915050565b5f81836100ba91906101cc565b905092915050565b5f80fd5b5f819050919050565b6100d8816100c6565b81146100e2575f80fd5b50565b5f813590506100f3816100cf565b92915050565b5f806040838503121561010f5761010e6100c2565b5b5f61011c858286016100e5565b925050602061012d858286016100e5565b9150509250929050565b610140816100c6565b82525050565b5f6020820190506101595f830184610137565b92915050565b7f4e487b71000000000000000000000000000000000000000000000000000000005f52601160045260245ffd5b5f610196826100c6565b91506101a1836100c6565b925082820390508181125f8412168282135f8512151617156101c6576101c561015f565b5b92915050565b5f6101d6826100c6565b91506101e1836100c6565b92508282019050828112155f8312168382125f8412151617156102075761020661015f565b5b9291505056fea2646970667358221220fa76dfadff2fb42797fbcf3b086f0f16f5dcd9215796150944a69ce0a37a437064736f6c634300081a0033",
					"opcodes": "PUSH1 0x80 PUSH1 0x40 MSTORE CALLVALUE DUP1 ISZERO PUSH1 0xE JUMPI PUSH0 DUP1 REVERT JUMPDEST POP PUSH2 0x243 DUP1 PUSH2 0x1C PUSH0 CODECOPY PUSH0 RETURN INVALID PUSH1 0x80 PUSH1 0x40 MSTORE CALLVALUE DUP1 ISZERO PUSH2 0xF JUMPI PUSH0 DUP1 REVERT JUMPDEST POP PUSH1 0x4 CALLDATASIZE LT PUSH2 0x34 JUMPI PUSH0 CALLDATALOAD PUSH1 0xE0 SHR DUP1 PUSH4 0x8F4CF6FD EQ PUSH2 0x38 JUMPI DUP1 PUSH4 0xA5F3C23B EQ PUSH2 0x68 JUMPI JUMPDEST PUSH0 DUP1 REVERT JUMPDEST PUSH2 0x52 PUSH1 0x4 DUP1 CALLDATASIZE SUB DUP2 ADD SWAP1 PUSH2 0x4D SWAP2 SWAP1 PUSH2 0xF9 JUMP JUMPDEST PUSH2 0x98 JUMP JUMPDEST PUSH1 0x40 MLOAD PUSH2 0x5F SWAP2 SWAP1 PUSH2 0x146 JUMP JUMPDEST PUSH1 0x40 MLOAD DUP1 SWAP2 SUB SWAP1 RETURN JUMPDEST PUSH2 0x82 PUSH1 0x4 DUP1 CALLDATASIZE SUB DUP2 ADD SWAP1 PUSH2 0x7D SWAP2 SWAP1 PUSH2 0xF9 JUMP JUMPDEST PUSH2 0xAD JUMP JUMPDEST PUSH1 0x40 MLOAD PUSH2 0x8F SWAP2 SWAP1 PUSH2 0x146 JUMP JUMPDEST PUSH1 0x40 MLOAD DUP1 SWAP2 SUB SWAP1 RETURN JUMPDEST PUSH0 DUP2 DUP4 PUSH2 0xA5 SWAP2 SWAP1 PUSH2 0x18C JUMP JUMPDEST SWAP1 POP SWAP3 SWAP2 POP POP JUMP JUMPDEST PUSH0 DUP2 DUP4 PUSH2 0xBA SWAP2 SWAP1 PUSH2 0x1CC JUMP JUMPDEST SWAP1 POP SWAP3 SWAP2 POP POP JUMP JUMPDEST PUSH0 DUP1 REVERT JUMPDEST PUSH0 DUP2 SWAP1 POP SWAP2 SWAP1 POP JUMP JUMPDEST PUSH2 0xD8 DUP2 PUSH2 0xC6 JUMP JUMPDEST DUP2 EQ PUSH2 0xE2 JUMPI PUSH0 DUP1 REVERT JUMPDEST POP JUMP JUMPDEST PUSH0 DUP2 CALLDATALOAD SWAP1 POP PUSH2 0xF3 DUP2 PUSH2 0xCF JUMP JUMPDEST SWAP3 SWAP2 POP POP JUMP JUMPDEST PUSH0 DUP1 PUSH1 0x40 DUP4 DUP6 SUB SLT ISZERO PUSH2 0x10F JUMPI PUSH2 0x10E PUSH2 0xC2 JUMP JUMPDEST JUMPDEST PUSH0 PUSH2 0x11C DUP6 DUP3 DUP7 ADD PUSH2 0xE5 JUMP JUMPDEST SWAP3 POP POP PUSH1 0x20 PUSH2 0x12D DUP6 DUP3 DUP7 ADD PUSH2 0xE5 JUMP JUMPDEST SWAP2 POP POP SWAP3 POP SWAP3 SWAP1 POP JUMP JUMPDEST PUSH2 0x140 DUP2 PUSH2 0xC6 JUMP JUMPDEST DUP3 MSTORE POP POP JUMP JUMPDEST PUSH0 PUSH1 0x20 DUP3 ADD SWAP1 POP PUSH2 0x159 PUSH0 DUP4 ADD DUP5 PUSH2 0x137 JUMP JUMPDEST SWAP3 SWAP2 POP POP JUMP JUMPDEST PUSH32 0x4E487B7100000000000000000000000000000000000000000000000000000000 PUSH0 MSTORE PUSH1 0x11 PUSH1 0x4 MSTORE PUSH1 0x24 PUSH0 REVERT JUMPDEST PUSH0 PUSH2 0x196 DUP3 PUSH2 0xC6 JUMP JUMPDEST SWAP2 POP PUSH2 0x1A1 DUP4 PUSH2 0xC6 JUMP JUMPDEST SWAP3 POP DUP3 DUP3 SUB SWAP1 POP DUP2 DUP2 SLT PUSH0 DUP5 SLT AND DUP3 DUP3 SGT PUSH0 DUP6 SLT ISZERO AND OR ISZERO PUSH2 0x1C6 JUMPI PUSH2 0x1C5 PUSH2 0x15F JUMP JUMPDEST JUMPDEST SWAP3 SWAP2 POP POP JUMP JUMPDEST PUSH0 PUSH2 0x1D6 DUP3 PUSH2 0xC6 JUMP JUMPDEST SWAP2 POP PUSH2 0x1E1 DUP4 PUSH2 0xC6 JUMP JUMPDEST SWAP3 POP DUP3 DUP3 ADD SWAP1 POP DUP3 DUP2 SLT ISZERO PUSH0 DUP4 SLT AND DUP4 DUP3 SLT PUSH0 DUP5 SLT ISZERO AND OR ISZERO PUSH2 0x207 JUMPI PUSH2 0x206 PUSH2 0x15F JUMP JUMPDEST JUMPDEST SWAP3 SWAP2 POP POP JUMP INVALID LOG2 PUSH5 0x6970667358 0x22 SLT KECCAK256 STATICCALL PUSH23 0xDFADFF2FB42797FBCF3B086F0F16F5DCD9215796150944 0xA6 SWAP13 0xE0 LOG3 PUSH27 0x437064736F6C634300081A00330000000000000000000000000000 "
				},
				"gasEstimates": {
					"creation": {
						"codeDepositCost": "115800",
						"executionCost": "163",
						"totalCost": "115963"
					},
					"external": {
						"add(int256,int256)": "infinite",
						"sun(int256,int256)": "infinite"
					}
				},
				"methodIdentifiers": {
					"add(int256,int256)": "a5f3c23b",
					"sun(int256,int256)": "8f4cf6fd"
				}
			},
			"storageLayout": {
				"storage": [],
				"types": null
			},
			"userdoc": {
				"kind": "user",
				"methods": {},
				"version": 1
			}
		}
	}
}