{
	"contracts/IF.sol": {
		"contional": {
			"abi": [
				{
					"inputs": [
						{
							"internalType": "int256",
							"name": "y",
							"type": "int256"
						}
					],
					"name": "get",
					"outputs": [
						{
							"internalType": "int256",
							"name": "",
							"type": "int256"
						}
					],
					"stateMutability": "pure",
					"type": "function"
				}
			],
			"devdoc": {
				"kind": "dev",
				"methods": {},
				"version": 1
			},
			"evm": {
				"assembly": "    /* \"contracts/IF.sol\":72:226  contract contional... */\n  mstore(0x40, 0x80)\n  callvalue\n  dup1\n  iszero\n  tag_1\n  jumpi\n  0x00\n  dup1\n  revert\ntag_1:\n  pop\n  dataSize(sub_0)\n  dup1\n  dataOffset(sub_0)\n  0x00\n  codecopy\n  0x00\n  return\nstop\n\nsub_0: assembly {\n        /* \"contracts/IF.sol\":72:226  contract contional... */\n      mstore(0x40, 0x80)\n      callvalue\n      dup1\n      iszero\n      tag_1\n      jumpi\n      0x00\n      dup1\n      revert\n    tag_1:\n      pop\n      jumpi(tag_2, lt(calldatasize, 0x04))\n      shr(0xe0, calldataload(0x00))\n      dup1\n      0x846719e0\n      eq\n      tag_3\n      jumpi\n    tag_2:\n      0x00\n      dup1\n      revert\n        /* \"contracts/IF.sol\":97:223  function get(int y)pure external returns(int)... */\n    tag_3:\n      tag_4\n      0x04\n      dup1\n      calldatasize\n      sub\n      dup2\n      add\n      swap1\n      tag_5\n      swap2\n      swap1\n      tag_6\n      jump\t// in\n    tag_5:\n      tag_7\n      jump\t// in\n    tag_4:\n      mload(0x40)\n      tag_8\n      swap2\n      swap1\n      tag_9\n      jump\t// in\n    tag_8:\n      mload(0x40)\n      dup1\n      swap2\n      sub\n      swap1\n      return\n    tag_7:\n        /* \"contracts/IF.sol\":138:141  int */\n      0x00\n        /* \"contracts/IF.sol\":161:162  0 */\n      dup1\n        /* \"contracts/IF.sol\":158:159  2 */\n      0x02\n        /* \"contracts/IF.sol\":156:157  y */\n      dup4\n        /* \"contracts/IF.sol\":156:159  y%2 */\n      tag_11\n      swap2\n      swap1\n      tag_12\n      jump\t// in\n    tag_11:\n        /* \"contracts/IF.sol\":156:162  y%2==0 */\n      sub\n        /* \"contracts/IF.sol\":153:202  if(y%2==0)return 1;... */\n      tag_13\n      jumpi\n        /* \"contracts/IF.sol\":170:171  1 */\n      0x01\n        /* \"contracts/IF.sol\":163:171  return 1 */\n      swap1\n      pop\n      jump(tag_10)\n        /* \"contracts/IF.sol\":153:202  if(y%2==0)return 1;... */\n    tag_13:\n        /* \"contracts/IF.sol\":192:193  0 */\n      0x00\n        /* \"contracts/IF.sol\":189:190  3 */\n      0x03\n        /* \"contracts/IF.sol\":187:188  y */\n      dup4\n        /* \"contracts/IF.sol\":187:190  y%3 */\n      tag_15\n      swap2\n      swap1\n      tag_12\n      jump\t// in\n    tag_15:\n        /* \"contracts/IF.sol\":187:193  y%3==0 */\n      sub\n        /* \"contracts/IF.sol\":184:202  if(y%3==0)return 3 */\n      tag_16\n      jumpi\n        /* \"contracts/IF.sol\":201:202  3 */\n      0x03\n        /* \"contracts/IF.sol\":194:202  return 3 */\n      swap1\n      pop\n      jump(tag_10)\n        /* \"contracts/IF.sol\":184:202  if(y%3==0)return 3 */\n    tag_16:\n        /* \"contracts/IF.sol\":216:217  0 */\n      0x00\n        /* \"contracts/IF.sol\":209:217  return 0 */\n      swap1\n      pop\n        /* \"contracts/IF.sol\":97:223  function get(int y)pure external returns(int)... */\n    tag_10:\n      swap2\n      swap1\n      pop\n      jump\t// out\n        /* \"#utility.yul\":88:205   */\n    tag_18:\n        /* \"#utility.yul\":197:198   */\n      0x00\n        /* \"#utility.yul\":194:195   */\n      dup1\n        /* \"#utility.yul\":187:199   */\n      revert\n        /* \"#utility.yul\":334:410   */\n    tag_20:\n        /* \"#utility.yul\":370:377   */\n      0x00\n        /* \"#utility.yul\":399:404   */\n      dup2\n        /* \"#utility.yul\":388:404   */\n      swap1\n      pop\n        /* \"#utility.yul\":334:410   */\n      swap2\n      swap1\n      pop\n      jump\t// out\n        /* \"#utility.yul\":416:536   */\n    tag_21:\n        /* \"#utility.yul\":488:511   */\n      tag_31\n        /* \"#utility.yul\":505:510   */\n      dup2\n        /* \"#utility.yul\":488:511   */\n      tag_20\n      jump\t// in\n    tag_31:\n        /* \"#utility.yul\":481:486   */\n      dup2\n        /* \"#utility.yul\":478:512   */\n      eq\n        /* \"#utility.yul\":468:530   */\n      tag_32\n      jumpi\n        /* \"#utility.yul\":526:527   */\n      0x00\n        /* \"#utility.yul\":523:524   */\n      dup1\n        /* \"#utility.yul\":516:528   */\n      revert\n        /* \"#utility.yul\":468:530   */\n    tag_32:\n        /* \"#utility.yul\":416:536   */\n      pop\n      jump\t// out\n        /* \"#utility.yul\":542:679   */\n    tag_22:\n        /* \"#utility.yul\":587:592   */\n      0x00\n        /* \"#utility.yul\":625:631   */\n      dup2\n        /* \"#utility.yul\":612:632   */\n      calldataload\n        /* \"#utility.yul\":603:632   */\n      swap1\n      pop\n        /* \"#utility.yul\":641:673   */\n      tag_34\n        /* \"#utility.yul\":667:672   */\n      dup2\n        /* \"#utility.yul\":641:673   */\n      tag_21\n      jump\t// in\n    tag_34:\n        /* \"#utility.yul\":542:679   */\n      swap3\n      swap2\n      pop\n      pop\n      jump\t// out\n        /* \"#utility.yul\":685:1012   */\n    tag_6:\n        /* \"#utility.yul\":743:749   */\n      0x00\n        /* \"#utility.yul\":792:794   */\n      0x20\n        /* \"#utility.yul\":780:789   */\n      dup3\n        /* \"#utility.yul\":771:778   */\n      dup5\n        /* \"#utility.yul\":767:790   */\n      sub\n        /* \"#utility.yul\":763:795   */\n      slt\n        /* \"#utility.yul\":760:879   */\n      iszero\n      tag_36\n      jumpi\n        /* \"#utility.yul\":798:877   */\n      tag_37\n      tag_18\n      jump\t// in\n    tag_37:\n        /* \"#utility.yul\":760:879   */\n    tag_36:\n        /* \"#utility.yul\":918:919   */\n      0x00\n        /* \"#utility.yul\":943:995   */\n      tag_38\n        /* \"#utility.yul\":987:994   */\n      dup5\n        /* \"#utility.yul\":978:984   */\n      dup3\n        /* \"#utility.yul\":967:976   */\n      dup6\n        /* \"#utility.yul\":963:985   */\n      add\n        /* \"#utility.yul\":943:995   */\n      tag_22\n      jump\t// in\n    tag_38:\n        /* \"#utility.yul\":933:995   */\n      swap2\n      pop\n        /* \"#utility.yul\":889:1005   */\n      pop\n        /* \"#utility.yul\":685:1012   */\n      swap3\n      swap2\n      pop\n      pop\n      jump\t// out\n        /* \"#utility.yul\":1018:1133   */\n    tag_23:\n        /* \"#utility.yul\":1103:1126   */\n      tag_40\n        /* \"#utility.yul\":1120:1125   */\n      dup2\n        /* \"#utility.yul\":1103:1126   */\n      tag_20\n      jump\t// in\n    tag_40:\n        /* \"#utility.yul\":1098:1101   */\n      dup3\n        /* \"#utility.yul\":1091:1127   */\n      mstore\n        /* \"#utility.yul\":1018:1133   */\n      pop\n      pop\n      jump\t// out\n        /* \"#utility.yul\":1139:1357   */\n    tag_9:\n        /* \"#utility.yul\":1230:1234   */\n      0x00\n        /* \"#utility.yul\":1268:1270   */\n      0x20\n        /* \"#utility.yul\":1257:1266   */\n      dup3\n        /* \"#utility.yul\":1253:1271   */\n      add\n        /* \"#utility.yul\":1245:1271   */\n      swap1\n      pop\n        /* \"#utility.yul\":1281:1350   */\n      tag_42\n        /* \"#utility.yul\":1347:1348   */\n      0x00\n        /* \"#utility.yul\":1336:1345   */\n      dup4\n        /* \"#utility.yul\":1332:1349   */\n      add\n        /* \"#utility.yul\":1323:1329   */\n      dup5\n        /* \"#utility.yul\":1281:1350   */\n      tag_23\n      jump\t// in\n    tag_42:\n        /* \"#utility.yul\":1139:1357   */\n      swap3\n      swap2\n      pop\n      pop\n      jump\t// out\n        /* \"#utility.yul\":1363:1543   */\n    tag_24:\n        /* \"#utility.yul\":1411:1488   */\n      0x4e487b7100000000000000000000000000000000000000000000000000000000\n        /* \"#utility.yul\":1408:1409   */\n      0x00\n        /* \"#utility.yul\":1401:1489   */\n      mstore\n        /* \"#utility.yul\":1508:1512   */\n      0x12\n        /* \"#utility.yul\":1505:1506   */\n      0x04\n        /* \"#utility.yul\":1498:1513   */\n      mstore\n        /* \"#utility.yul\":1532:1536   */\n      0x24\n        /* \"#utility.yul\":1529:1530   */\n      0x00\n        /* \"#utility.yul\":1522:1537   */\n      revert\n        /* \"#utility.yul\":1549:1723   */\n    tag_12:\n        /* \"#utility.yul\":1580:1581   */\n      0x00\n        /* \"#utility.yul\":1597:1616   */\n      tag_45\n        /* \"#utility.yul\":1614:1615   */\n      dup3\n        /* \"#utility.yul\":1597:1616   */\n      tag_20\n      jump\t// in\n    tag_45:\n        /* \"#utility.yul\":1592:1616   */\n      swap2\n      pop\n        /* \"#utility.yul\":1630:1649   */\n      tag_46\n        /* \"#utility.yul\":1647:1648   */\n      dup4\n        /* \"#utility.yul\":1630:1649   */\n      tag_20\n      jump\t// in\n    tag_46:\n        /* \"#utility.yul\":1625:1649   */\n      swap3\n      pop\n        /* \"#utility.yul\":1668:1669   */\n      dup3\n        /* \"#utility.yul\":1658:1693   */\n      tag_47\n      jumpi\n        /* \"#utility.yul\":1673:1691   */\n      tag_48\n      tag_24\n      jump\t// in\n    tag_48:\n        /* \"#utility.yul\":1658:1693   */\n    tag_47:\n        /* \"#utility.yul\":1715:1716   */\n      dup3\n        /* \"#utility.yul\":1712:1713   */\n      dup3\n        /* \"#utility.yul\":1707:1717   */\n      smod\n        /* \"#utility.yul\":1702:1717   */\n      swap1\n      pop\n        /* \"#utility.yul\":1549:1723   */\n      swap3\n      swap2\n      pop\n      pop\n      jump\t// out\n\n    auxdata: 0xa2646970667358221220eab9fe8353d0bceb4284a46f1472205346c99a1b3c5546c4425536b43554797464736f6c634300081a0033\n}\n",
				"bytecode": {
					"linkReferences": {},
					"object": "6080604052348015600e575f80fd5b506101bc8061001c5f395ff3fe608060405234801561000f575f80fd5b5060043610610029575f3560e01c8063846719e01461002d575b5f80fd5b610047600480360381019061004291906100d6565b61005d565b6040516100549190610110565b60405180910390f35b5f8060028361006c9190610156565b0361007a576001905061009a565b5f6003836100889190610156565b03610096576003905061009a565b5f90505b919050565b5f80fd5b5f819050919050565b6100b5816100a3565b81146100bf575f80fd5b50565b5f813590506100d0816100ac565b92915050565b5f602082840312156100eb576100ea61009f565b5b5f6100f8848285016100c2565b91505092915050565b61010a816100a3565b82525050565b5f6020820190506101235f830184610101565b92915050565b7f4e487b71000000000000000000000000000000000000000000000000000000005f52601260045260245ffd5b5f610160826100a3565b915061016b836100a3565b92508261017b5761017a610129565b5b82820790509291505056fea2646970667358221220eab9fe8353d0bceb4284a46f1472205346c99a1b3c5546c4425536b43554797464736f6c634300081a0033",
					"opcodes": "PUSH1 0x80 PUSH1 0x40 MSTORE CALLVALUE DUP1 ISZERO PUSH1 0xE JUMPI PUSH0 DUP1 REVERT JUMPDEST POP PUSH2 0x1BC DUP1 PUSH2 0x1C PUSH0 CODECOPY PUSH0 RETURN INVALID PUSH1 0x80 PUSH1 0x40 MSTORE CALLVALUE DUP1 ISZERO PUSH2 0xF JUMPI PUSH0 DUP1 REVERT JUMPDEST POP PUSH1 0x4 CALLDATASIZE LT PUSH2 0x29 JUMPI PUSH0 CALLDATALOAD PUSH1 0xE0 SHR DUP1 PUSH4 0x846719E0 EQ PUSH2 0x2D JUMPI JUMPDEST PUSH0 DUP1 REVERT JUMPDEST PUSH2 0x47 PUSH1 0x4 DUP1 CALLDATASIZE SUB DUP2 ADD SWAP1 PUSH2 0x42 SWAP2 SWAP1 PUSH2 0xD6 JUMP JUMPDEST PUSH2 0x5D JUMP JUMPDEST PUSH1 0x40 MLOAD PUSH2 0x54 SWAP2 SWAP1 PUSH2 0x110 JUMP JUMPDEST PUSH1 0x40 MLOAD DUP1 SWAP2 SUB SWAP1 RETURN JUMPDEST PUSH0 DUP1 PUSH1 0x2 DUP4 PUSH2 0x6C SWAP2 SWAP1 PUSH2 0x156 JUMP JUMPDEST SUB PUSH2 0x7A JUMPI PUSH1 0x1 SWAP1 POP PUSH2 0x9A JUMP JUMPDEST PUSH0 PUSH1 0x3 DUP4 PUSH2 0x88 SWAP2 SWAP1 PUSH2 0x156 JUMP JUMPDEST SUB PUSH2 0x96 JUMPI PUSH1 0x3 SWAP1 POP PUSH2 0x9A JUMP JUMPDEST PUSH0 SWAP1 POP JUMPDEST SWAP2 SWAP1 POP JUMP JUMPDEST PUSH0 DUP1 REVERT JUMPDEST PUSH0 DUP2 SWAP1 POP SWAP2 SWAP1 POP JUMP JUMPDEST PUSH2 0xB5 DUP2 PUSH2 0xA3 JUMP JUMPDEST DUP2 EQ PUSH2 0xBF JUMPI PUSH0 DUP1 REVERT JUMPDEST POP JUMP JUMPDEST PUSH0 DUP2 CALLDATALOAD SWAP1 POP PUSH2 0xD0 DUP2 PUSH2 0xAC JUMP JUMPDEST SWAP3 SWAP2 POP POP JUMP JUMPDEST PUSH0 PUSH1 0x20 DUP3 DUP5 SUB SLT ISZERO PUSH2 0xEB JUMPI PUSH2 0xEA PUSH2 0x9F JUMP JUMPDEST JUMPDEST PUSH0 PUSH2 0xF8 DUP5 DUP3 DUP6 ADD PUSH2 0xC2 JUMP JUMPDEST SWAP2 POP POP SWAP3 SWAP2 POP POP JUMP JUMPDEST PUSH2 0x10A DUP2 PUSH2 0xA3 JUMP JUMPDEST DUP3 MSTORE POP POP JUMP JUMPDEST PUSH0 PUSH1 0x20 DUP3 ADD SWAP1 POP PUSH2 0x123 PUSH0 DUP4 ADD DUP5 PUSH2 0x101 JUMP JUMPDEST SWAP3 SWAP2 POP POP JUMP JUMPDEST PUSH32 0x4E487B7100000000000000000000000000000000000000000000000000000000 PUSH0 MSTORE PUSH1 0x12 PUSH1 0x4 MSTORE PUSH1 0x24 PUSH0 REVERT JUMPDEST PUSH0 PUSH2 0x160 DUP3 PUSH2 0xA3 JUMP JUMPDEST SWAP2 POP PUSH2 0x16B DUP4 PUSH2 0xA3 JUMP JUMPDEST SWAP3 POP DUP3 PUSH2 0x17B JUMPI PUSH2 0x17A PUSH2 0x129 JUMP JUMPDEST JUMPDEST DUP3 DUP3 SMOD SWAP1 POP SWAP3 SWAP2 POP POP JUMP INVALID LOG2 PUSH5 0x6970667358 0x22 SLT KECCAK256 0xEA 0xB9 INVALID DUP4 MSTORE8 0xD0 0xBC 0xEB TIMESTAMP DUP5 LOG4 PUSH16 0x1472205346C99A1B3C5546C4425536B4 CALLDATALOAD SLOAD PUSH26 0x7464736F6C634300081A00330000000000000000000000000000 "
				},
				"gasEstimates": {
					"creation": {
						"codeDepositCost": "88800",
						"executionCost": "133",
						"totalCost": "88933"
					},
					"external": {
						"get(int256)": "infinite"
					}
				},
				"methodIdentifiers": {
					"get(int256)": "846719e0"
				}
			},
			"storageLayout": {
				"storage": [],
				"types": null
			},
			"userdoc": {
				"kind": "user",
				"methods": {},
				"version": 1
			}
		}
	}
}